S01C000053657269616C4C6962726172794578616D706C652E7372656307
S1130000B02A0020190100001501000015010000AC
S113001000000000000000000000000000000000DC
S113002000000000000000000000000015010000B6
S11300300000000000000000150100001501000090
S11300401501000015010000150100001501000054
S113005015010000150100001501000095050000C0
S113006015010000A905000015010000150100009C
S11300701501000015010000150100001501000024
S11300801501000015010000150100001501000014
S11300901501000000000000000000001501000030
S11300A015010000150100001501000015010000F4
S11300B00000000010B5064C2378002B07D1054B37
S11300C0002B02D0044800E000BF0123237010BDC0
S11300D0640400200000000058370000084B10B5ED
S11300E0002B03D00749084800E000BF0748036815
S11300F0002B00D110BD064B002BFBD09847F9E72D
S11301000000000068040020583700005837000041
S113011000000000FEE70000F8B5234A234B9A4292
S113012009D0224B204A03E01168196004330432D9
S11301301F498B42F8D31F4B02E000221A6004339C
S11301401D4A9342F9D31D4AFF211D4B8B439360F3
S1130150FD3990235B001B4AD1501B4AD3780325F9
S1130160AB4302242343D370D3780C27BB43082624
S11301703343D370154B987B302290432022104395
S11301809873997BB943314399739A7BAA43224369
S11301909A730F4A516880230B4353600D4B984761
S11301A00D4B9847FEE7C04658370000000000207A
S11301B06404002064040020AC0A002000ED00E088
S11301C00000000000700041005000410048004160
S11301D00040004191310000C1050000012070473A
S11301E010B51B4B98471B4A1B4B5A601A4B5B7844
S11301F0DB09FBD1194B196A022291431962174B8F
S11302001B6A9B07FBD4154B196A154A0A401A62EC
S1130210196A02220A431A62104B1B6A9B07FBD518
S1130220832252020C4B5A600B4B5B78DB09FBD1E7
S11302300C4B98470C4C802292000C4920000C4B2C
S113024098472023E15C20000A4B9847022010BD08
S11302502D30000000030100000C004000080040A5
S1130260FFFCFFFF453000008006002080040020D2
S11302703D2E0000E52C000010B5064C2023E15C67
S11302802000054B984705492000054B984704205A
S113029010BDC04680060020E52C0000AC340000F0
S11302A03D2C000030B585B004220F236B441A7036
S11302B0334C2023E15C2000324B98470123002279
S11302C031492000314CA04700282CD101230022C1
S11302D02F492B482D4CA047002832D12848010033
S11302E024310823009300232A4A2B4CA0470028DA
S11302F037D1234801002431082300931933274AB6
S1130300254CA047002812D01D4C25492000254B20
S11303109847616A49432000234B98470A212000EB
S1130320224B984703E0224915481E4B98470F2457
S11303306C44204A052120001F4B9847207805B0C3
S113034030BD0F4C1D492000164DA8470122202323
S1130350E254012120000B4B984719492000A8477B
S1130360E5E7074C174920000E4B9847616A2000C7
S11303700D4B98470A2120000C4B9847D7E7C046FD
S113038080060020E52C0000E0340000752C0000FD
S1130390FC34000058350000B12C0000703500001A
S11303A0783500003D2C00008D2C0000E52B00006A
S11303B0EC340000310500001B300000043500005F
S11303C0283500006435000010B5012800D010BDA8
S11303D0064B9942FBD1064C2000064B9847064A2F
S11303E006492000064B9847F1E7C046FFFF00008E
S11303F080060020812B000000000020012E000058
S11304005930000000230370054B4360054B8360A3
S1130410054BC360054B0361054B43617047C04600
S1130420DD010000E1010000850400007902000004
S1130430A502000010B52823094AD45C002C07D17A
S1130440002C03D000212823054AD154200010BDDC
S11304501000044B98470028F2D00024F0E7C0466F
S113046080060020A52D000010B5012300220249BA
S11304700248034CA04710BD8835000080060020C8
S1130480752C000030B583B002226B46DA710F4C34
S11304902025615D20000E4B9847002363550D4BCA
S11304A09847002809D16B46DC1D0B4A0521200022
S11304B00A4B9847207803B030BD09490348094BDB
S11304C0984703226B46DA71EDE7C04680060020A8
S11304D0E52C000069040000310500001B30000019
S11304E08C3500003D2C000010B52823074AD35C4E
S11304F0002B07D00020002803D001212823034A21
S1130500D15410BD1000024B9847F4E78006002038
S1130510A52D000010B50123002202490248034C16
S1130520A04710BDB035000080060020752C0000E7
S113053010B510482023C15C0F4B98470F4B9847C8
S1130540002805D10E4B9847002807D0022004E06C
S11305500C4908480C4B9847022010BD0B4B984798
S1130560002801D10520F8E709490248064B9847BD
S11305700320F2E780060020E52C000015050000AA
S113058035040000B43500003D2C0000E9040000EF
S1130590DC35000010B50248024B984710BDC04638
S11305A080060020D52B00007047000010B50249DA
S11305B00120024B984710BDFFFF0000C903000053
S11305C000B587B06846034B98476846024B984786
S11305D0FBE7C046050400000930000070B50400C4
S11305E00500103528000F4B98473F2801D80020FC
S11305F070BDE17800200C4B98470028F8D0280003
S1130600084B98473F2805D8E1780020074B9847C6
S11306100020EDE72200B832E17840230020044CAA
S1130620A047E5E795100000611800008918000054
S1130630B118000010B503009C204000584310304E
S1130640024B1818024B984710BDC046AC06002058
S11306506310000070B5084C9C235B0058432518B8
S113066092B210302018054B984704002800044B20
S11306709847200070BDC046AC060020E110000081
S1130680DD05000070B505002A4B9847002804D109
S11306900023002B09D1002070BD274B9847002868
S11306A001D10123F5E70023F3E79C2464006C43A4
S11306B02034224B1C1904342000214B9847002875
S11306C001D10020E8E79C2252006A431B4B9B188F
S11306D0997800201B4B9847002801D10020DBE7C4
S11306E09C235B006B43F833144EF6184022310010
S11306F02000154B9847041E0ED09C235B006B43CF
S11307000E4DED18A9780300320000200F4DA847C4
S113071000280CD02000BFE79C235B006B43074DEF
S1130720ED18A97800200A4B98470020B4E7002070
S1130730B2E7C046E1140000F1140000AC0600204A
S11307406310000061180000E1100000B1180000FF
S11307508918000070B505009C24640044432034CB
S1130760094B1C19043492B22000084B9847060028
S11307702000074B98473F2801D8300070BD28005F
S1130780044B9847F9E7C046AC060020511100001D
S1130790631000008506000010B59C235B004343F2
S11307A020330348C0180430024B984710BDC0469C
S11307B0AC06002061110000F0B583B09C22520009
S11307C000211948194B98470026002E01D003B088
S11307D0F0BD154C9C256D0075436319FF225A71B9
S11307E000221349D980012119819A72DA720822F0
S11307F01A7329003831611828001030201800239A
S11308000093013338320B4FB8472900783161180F
S11308102800203020180430012300934022B847D8
S11308200136F6B2D1E7C046AC0600205D320000C6
S113083000C2FFFF31100000F8B50025002D00D0E4
S1130840F8BD0D4C9C2676006E43A01905220021AC
S11308500A4B9847300010302018094FB84720360B
S1130860A41904342000B84701212000054B9847FF
S11308700135EDB2E2E7C046AC0600205D3200006F
S1130880611100007B110000F0B583B005004B79C5
S1130890022B03D00024200003B0F0BD8B79022B7F
S11308A001D00024F7E70023002B11D118009C2667
S11308B076005E43284CA419A478002C02D001339E
S11308C0DBB2F1E79C2676007043234E361800E035
S11308D00026002E39D08B7833700F78CF19092475
S11308E07B78242B06D1944204D83B781C19A4B2FB
S11308F0FF18F5E7052B06D07B78042B10D03000C9
S1130900164B9847C7E739002800154B984700282D
S11309101DD0BB7873703B781C19A4B2FF18EBE7A9
S11309207B790A2BEBD139780C19A4B27918B31C52
S11309300193F31C0093022302222800094DA847C7
S1130940002806D00E34A4B2D9E70024A3E700247B
S1130950A1E700249FE7C046AC060020DD050000A7
S1130960B9170000F9170000F8B5150012786023D4
S11309701340202B01D00020F8BD404A0024002C55
S113098072D116782F796B791B023B439E4204D0B7
S11309900134E4B23932FF32F1E76B78212B21D0F4
S11309A009D9222B29D0232B60D101294BD003292B
S11309B04ED00120E0E7202B58D1012903D0032990
S11309C008D00120D8E70632072329002C4CA04781
S11309D00120D1E72B4B002B4AD0911D20009847D2
S11309E00120C9E7012901D00120C5E70632072308
S11309F02900234CA0470120BEE7012903D0032985
S1130A0006D00120B8E729001F4B98470120B3E71F
S1130A10AB78E9780902194301230B401D0048080B
S1130A2001260640117159425941C9B224321000BD
S1130A30164B9847164B002B1CD03200290020007F
S1130A409847012098E729000F4B9847012093E726
S1130A50104B002B10D0AB78E97809021943200021
S1130A600C4B9847012087E7002085E7002083E7A7
S1130A70012081E701207FE701207DE7AC0600200B
S1130A80E91F000000000000A51F00007B1100000A
S1130A900000000000000000F0B5D64600B582B0AA
S1130AA000908A461D000026002E09D0002E72D127
S1130AB0FB789A4512D0BB789A4545D001246BE067
S1130AC09C277F007743394BDF19FB785345EDD0E2
S1130AD0BB789A45EAD00136F6B2E5E710239C4686
S1130AE0BC44634601933900B831AAB26046304B26
S1130AF09847304B002B17D07B79FF2B14D0002460
S1130B0000E00134AC420FD27A793B19B8331B7838
S1130B109A42F6D10198284B98470028F1D1797967
S1130B203000244B9847ECE7244B002B04D0019869
S1130B30214B9847002803D03800214B9847BAE747
S1130B4030001E4B9847F7E71E4B002B01D03000B6
S1130B50984730001C4B9847002801D001241BE023
S1130B6038002430194B984700281AD1002D1AD088
S1130B70AB0601D001240FE0B9780098144B9847D4
S1130B80041E01D1012407E0B97800230022009853
S1130B90104DA84700E00024200002B004BC924697
S1130BA0F0BD0124F8E70124F6E7C046AC060020B6
S1130BB05111000000000000871000000000000038
S1130BC0DD05000000000000850600006310000041
S1130BD061180000B11800008A1892B2914202D83C
S1130BE083899A4202D94089121892B21000704740
S1130BF08A1A92B2914202D383899A4202D94089D5
S1130C00121A92B210007047838801E0C91A89B29F
S1130C108B42FBD908007047F8B505000C001100A1
S1130C201E00D31A9BB2B24202D242899B1A9BB2D3
S1130C30AF889F4205D23A0028000A4B9847288281
S1130C403B00002B01D10020F8BD31002800064BE9
S1130C5098472968EA88504309182000034B9847AD
S1130C600120F1E7F10B0000090C0000D93100006C
S1130C7030B583B0040093080CE00B784878000288
S1130C8018438B781B041843CB781B06034323605B
S1130C9004312B005D1EADB2002BEED103331A409C
S1130CA001D103B030BD0023019301A8024B984742
S1130CB0019B2360F5E7C046D9310000F0B5CE466C
S1130CC0474680B585B0070001910CA9097884884E
S1130CD0E41AA4B2151BADB2C08806006643B6B2CE
S1130CE0B0464543ADB243433E68B14699440029FA
S1130CF006D0012918D005B00CBC90469946F0BD29
S1130D00944205D34243494601982B4B9847F2E756
S1130D1042464946019E3000274CA04739683000BE
S1130D2040442A00A047E6E794421ED203234446E7
S1130D309C43220049460198204B984723004B448A
S1130D4003204246104035D00422121A92B2291CC4
S1130D50954200D9111C8CB2E2B2FF2121406D1AD8
S1130D60ADB20021039103AC0BE0424392B2494679
S1130D700198124B9847BEE7187820700134080098
S1130D800133411EC9B20028F6D1396804E00A785B
S1130D90227001341A000131531EDBB2002AF6D14D
S1130DA0019B039A1A60002DA5D02A000198034BD9
S1130DB09847A0E73968F6E7D9310000710C0000C4
S1130DC0F0B585B00500029103920AAA11880BAA16
S1130DD017785C1AA4B28B4202D24289A41AA4B234
S1130DE0AE88A64208D23200190028000C4B98475E
S1130DF02882298A89B23400002C0DD0039A9442A7
S1130E0000D314002800074B9847030000972200E2
S1130E1002992800044DA847200005B0F0BDC04643
S1130E20F10B0000090C0000BD0C000030B583B0CC
S1130E3004001D00C3899BB2008A01950090200024
S1130E40064DA8470500218A89B202002000044B00
S1130E5098472082280003B030BDC046C10D000071
S1130E60D90B000030B583B0950809E00B68037016
S1130E701D0A45701D0C85701B0EC37004302500BF
S1130E806C1EA4B2002DF1D103231A4001D103B08A
S1130E9030BD0B68019301A9014B9847F7E7C046A1
S1130EA0D9310000F0B5CE46474680B585B007007D
S1130EB001910CA90878BC88E41AA4B2151BADB240
S1130EC0F9880E006643B6B2B0464D43ADB24B430B
S1130ED03E68B1469944002806D0012818D005B0D0
S1130EE00CBC90469946F0BD944205D34A430199FF
S1130EF048462A4B9847F2E74246019E310048464D
S1130F00264CA0473868310041442A00A047E6E750
S1130F1094421FD2032344469C432200019948462D
S1130F201F4B984723004B4403214246114033D0C2
S1130F300422521A92B2281C954200D9101C84B281
S1130F40E2B2FF2020402D1AADB201980068039050
S1130F5003AC0BE04A4392B201994846104B9847C0
S1130F60BDE721781970013401000133481EC0B275
S1130F700029F6D1386804E02278027001341A009E
S1130F800130531EDBB2002AF6D1002DA7D02A006F
S1130F900199034B9847A2E73868F6E7D931000076
S1130FA0650E0000F0B585B004000393002A37D025
S1130FB0C789BFB2038A9BB2007A002824D1A088D3
S1130FC0FD1AADB29F4202D26389ED1AADB2431B42
S1130FD09BB2151C9A4200D91D1CADB20E003900FB
S1130FE02000104B98470300039A00922A00310016
S1130FF020000D4EB0472A00390020000B4B9847C3
S1131000E081280005B0F0BDA588AA4205D3521B93
S1131010E68856438E191F00E1E70E001500DEE74F
S11310201500EEE7090C0000A50E0000D90B000026
S113103030B503AC257880242402A2420FD8016085
S11310408280C3800572520092B2013A92B28281C8
S1131050D24342810023C3810382012030BD00209A
S1131060FCE7C18989B2028A92B28B1A9BB291427F
S113107002D242899B1A9BB28288101C9A4200D9E0
S1131080181C80B27047C389008A181A4342584119
S1131090C0B2704710B5C489A4B2018A89B28288EB
S11310A0631A9BB28C4202D240891B1A9BB2D01A9B
S11310B080B210BD70B50400C28992B2038A9BB29B
S11310C0054DA8470500218A89B282B22000034B4E
S11310D098472082280070BD190C0000D90B00002D
S11310E010B50023014CA04710BDC0462D0E0000D2
S11310F070B504000E00C589ADB2028A92B2AB1A73
S11311009BB2954202D242899B1A9BB2A2889A4210
S113111013D0290020000B4B9847E28850432368E2
S11311209C4660443100084B984701222900200066
S1131130064B9847E081012070BD207A0028E8D151
S1131140FAE7C046090C0000D9310000D90B0000B1
S113115010B50023014CA04710BDC046A50F0000E8
S11311600023C381038283885B009BB2013B9BB253
S11311708381DB4343810120704701720120704762
S113118070B5050000240FE0E31ADBB2002B1ED17A
S11311905A00D318DA00184B9B18002B2AD05B682E
S11311A0280098470134E4B2144B1B795A1C94422A
S11311B00FDA134A002A08D09C42E5D262001219C1
S11311C0D1000E4B1B685B18E7E72300DEE7002322
S11311D0E3E70A4C2000083033220021094DA847D8
S11311E020000B301022FF21A84720001B301022C2
S11311F0FF21A84770BDC0467C360000E4070020EC
S1131200000000005D32000010B5024B9847024B0D
S1131210984710BD811100006D20000070B50500D5
S11312200C001600C868044B9847E368320001219B
S11312302800984770BDC04685200000F0B5DE4602
S1131240574680B585B002900139C8B2564B9847CD
S1131250002800D19DE04378022B05D0002005B082
S11312600CBC92469B46F0BDC1798B0629D5012260
S11312704E4C1201237A1025AB43134323724B06C1
S113128021D50122494952010B7A2024A343134357
S11312900B72060009368278C3781B021343824618
S11312A09A4456456FD273780B2B0ED001239B467C
S11312B07378042B6FD153469D1BABB2019300246A
S11312C020E00022D4E70022DCE7F3789B46337861
S11312D0F618EDE7E31ADBB2002B27D15A00D31836
S11312E0DD00334B5D19002D57D0019A310002986F
S11312F0AF68B8470700082802D9019B834217D278
S11313000134E4B20394294B1B795A1C944232DA17
S1131310284A002A08D09C42DCD263001B19DD0055
S1131320224B1B685D19DEE72300D5E70025DAE7C9
S11313305B46012B10D00022934514D9B378D318FF
S1131340DBB21A49C918C97AFF2928D11749CB1821
S1131350DC720132D2B2EFE7AA68174B9A42EAD1A3
S113136002239B46E7E711481B3023003A00310073
S1131370124CA047F6190D4B1B790133039A9A427C
S11313808FDB00206BE70E4B002B0AD0984701201F
S113139065E7002063E7002061E700205FE70020A5
S11313A05DE701205BE7C046952F0000E4070020BD
S11313B07C3600000000000089080000652F000052
S11313C00000000070B504000D008B78C87800029E
S11313D01843020AC0B20F2A51D893002E49CB58A1
S11313E09F462E4B984702001223290020002C4CC4
S11313F0A04770BD2B4B002B43D09847002801D148
S11314000020F6E78278C3781B0213430200290008
S11314102000234CA047ECE7022A07D0224B002BE4
S113142031D09847002804D10020E2E71F4B9847A9
S1131430F8E78278C3781B021343020029002000D6
S1131440174CA047D5E72B79697909021943184B42
S11314509847002819D00378020029002000104C76
S1131460A047C6E7134B002B11D09847002810D093
S11314700378020029002000094CA047B9E70020A6
S1131480B7E70020B5E70020B3E70020B1E700206C
S1131490AFE70020ADE7C046F03500008D2F000017
S11314A0E91F00000000000000000000952F00006C
S11314B0A12F00000000000010B5002804D1054B46
S11314C01878054B984710BD024B1878034B984782
S11314D0F9E7C046040000209D220000912200008C
S11314E0024B587A431E9841C0B27047E40700206B
S11314F0024B187A4007C00F7047C046E40700202B
S113150010B5054B002B05D0044B1878024B9847B7
S1131510012010BD0020FCE7B122000004000020DF
S113152010B5054B002B05D0044B1878024B984797
S1131530012010BD0020FCE7C522000004000020AB
S1131540034B1878FF38431E9841C0B27047C04619
S113155004000020F8B50600244B9847051E01D06E
S11315602800F8BD224F3800083033220021214BD7
S11315709847214C0434201D204B9847FC63204B92
S1131580002B03D01A4C201D9847206000240EE045
S1131590E31ADBB2002B1DD15A00D318DA00194B21
S11315A09B18002BDCD01B6898470134E4B2104B25
S11315B01B795A1C94420FDA114A002A08D09C4223
S11315C0E6D262001219D100094B1B685B18E8E7E8
S11315D02300DFE70023E4E7074B1E7030000A4BCB
S11315E098473000094B98470125B9E74115000099
S11315F0E40700205D3200000400002061110000B7
S1131600000000007C360000F5210000912200005B
S1131610F0B585B005000E004378032B00D186E0B9
S11316201CD9042B3DD0052B00D0A6E05D4B1B7AC2
S1131630DB0700D4ABE05B4B1A7A04218A431A72AD
S1131640DC6B002E47D0201D2900574B9847002EF5
S113165000D09CE023680120984798E0022B00D03A
S11316608BE0504B1A7A01218A431A721A7A01319B
S11316708A431A7200225A721A7A02318A431A72FF
S1131680DC6B002E09D0201D2900474B9847002E03
S11316907DD123680120984779E00020236898478A
S11316A0F1E7404B1B7ADB0771D53E4B1A7A0421D4
S11316B00A431A72DC6B002E09D0201D29003A4B14
S11316C09847002E63D12368012098475FE00020EB
S11316D023689847F1E7002023689847B3E7E31AA3
S11316E0DBB2002B21D15A00D318DA002F4B9B1800
S11316F0002B05D05B69002B02D0287869689847D5
S11317000134E4B2274B1B795A1C944211DA284A5B
S1131710002A08D09C42E2D262001219D100214B67
S11317201B685B18E4E72300DBE70023E0E7002401
S1131730E8E71C4B1B7A5B0729D51A4C237A042251
S11317409343237201AF083200213800194B9847A4
S11317502B783B7005237B70E46B002E09D0201D91
S113176001A9114B9847002E11D1236801209847F5
S11317700DE0002023689847F1E70A4BDC6B002E4C
S113178007D0201D2900084B9847002E05D005B02E
S1131790F0BD002023689847F3E7236801209847A9
S11317A0F5E7C046E4070020F11000007C36000095
S11317B0000000005D32000070B50C000A4B1D787B
S11317C08A787F231340072B01D9002070BD074B73
S11317D0997A2000064B98470028F7D0210028006A
S11317E0044B9847F2E7C04604000020E4070020B9
S11317F0F12E00001D230000F0B5C64600B582B0EE
S113180001900C0016001D00089B9846002704E078
S1131810099A13702378E4180137B74214DA63780D
S1131820052B16D1E3789B079B0FAB4213D1210004
S113183001980A4B9847002807D0A3785AB2002A87
S1131840E6DB42461370E5E7012002B004BC904693
S1131850F0BD0020F9E70020F7E7C046B917000003
S113186010B57F200840C9094000401820300449C1
S11318700831081803300021024B984710BDC046B8
S1131880E4070020A52E000010B57F200840C909F8
S11318904000401820300449083108180330002162
S11318A0024B984710BDC046E4070020CB2E000031
S11318B0F8B5CE46474680B5194800787F250D40D7
S11318C0CE096F00174CE419A4192834E478E4070E
S11318D004D500200CBC90469946F8BD114CE4197F
S11318E0A4192827B946A1444C46E4780127BC46EC
S11318F067463C4327004C46E7700B4CA047002842
S1131900E8D16D00074B5D19AE192836F378012232
S11319109343F370F37803329343F370DAE7C046EA
S113192004000020E4070020F123000070B50F4BF1
S113193018787F240C40CD0962000D4B9B185B196D
S11319402833DB789B0700D570BD0A4B98476300AA
S1131950074CE41864192834E37802221343E37033
S1131960E37801221343E370EEE7C046040000204D
S1131970E4070020CD24000070B50F4B18787F24B5
S11319800C40CD0962000D4B9B185B192833DB78A2
S11319909B0700D470BD0A4B98476300074CE418BA
S11319A064192834E37802229343E370E378013A1C
S11319B09343E370EEE7C04604000020E4070020F0
S11319C0F12400007F230B40CA095B000349C918B6
S11319D089182831C8788007C00F7047E4070020B1
S11319E0F0B5C64600B582B004000D000020C94B16
S11319F098472B785B069B0F022B00DDB4E12B7814
S1131A0060221A40402A0CD02B78DB06DB0E012B17
S1131A1000D1CCE0002B11D0022B00D112E1002028
S1131A20A3E1BD4B002B00D1A3E11E001800B94B6C
S1131A3098472A0001212000B04796E1202A0AD0C5
S1131A40002A00D09BE16B78092B00D999E19B0017
S1131A50B24AD3589F462B790F2B00D98BE1B04A59
S1131A60D318DB7AAF4A002A13D0AD4A12799A42CE
S1131A700DD95A00D318DA00A94B1968891800291E
S1131A8000D17AE12A002000A74B98476DE19B1A08
S1131A90DBB2002B05D15A00D318DA00A349891808
S1131AA0EDE70021EBE72800A14B9847A978200037
S1131AB0A04B98479A4A137A02210B4313720120D0
S1131AC053E1974B5B7A6A4606321370012329006F
S1131AD02000994CA047012047E1AE78904B5B7AF7
S1131AE0DBB29E4205D08E4B5B7A002B09D1002ECF
S1131AF013D18B4B5E7229002000904B9847012034
S1131B0033E120008E4B9847854FBB7A98462000DE
S1131B108C4B98474346BB72E9E7310020008A4B5F
S1131B209847002800D120E1E3E729002000874BF3
S1131B3098471AE1AA78EB781B021343012B01D0D2
S1131B40002012E1764A117A07330B4313722900FD
S1131B5020007A4B9847012007E1AA78EB781B0212
S1131B601343012B01D00020FFE06D4A137A0821B2
S1131B708B43137229002000704B98470120F4E036
S1131B80674B1A7A93060ED5012312070DD400224F
S1131B9013436A4606321380022329002000664C50
S1131BA0A0470120E1E00023EFE70222F0E72B79D0
S1131BB00F2B00D9E7E05A4AD318DB7A594A002A96
S1131BC02BD0574A1279934225D25A00D318DA00FF
S1131BD0534B19688918002900D1D6E02A00200047
S1131BE0514B9847002800D0BFE02B7860221A425E
S1131BF000D0BAE06B780A3BDBB2012B00D9B4E029
S1131C00444B98476B780A2B11D0290020004B4B8A
S1131C1098470120A9E09B1ADBB2002B05D15A009A
S1131C20D318DA0041498918D5E70021D3E76B4678
S1131C309A1D002313700133290020003E4CA04755
S1131C40012092E029796B791B020B43D9B27F20E2
S1131C500840CB09072800D999E04000304E3018DD
S1131C60C318DB7E2F48002814D0307983420FD26A
S1131C705800C318D80036683618002A14D0002E2D
S1131C8000D186E02A0031002000274B98476CE001
S1131C901B1ADBB2002B05D15800C318D800234E01
S1131CA03618EAE70026E8E76B78012B12D0002B00
S1131CB003D0032B0ED0002057E02000244B98477C
S1131CC06B469A1D10800223290020001A4CA0475D
S1131CD001204AE0A878EA781202024304D1012BD9
S1131CE013D020001B4B9847002E54D02A003100FB
S1131CF020000D4B98470020064B98472C23084A98
S1131D00D35CDB072AD501202FE02000124B984733
S1131D10EAE7C046852000000000000030360000DD
S1131D20E4070020000000001D1200007C360000C3
S1131D3091200000AD240000E91F0000A51F000051
S1131D40ED230000811100003D120000C5130000C6
S1131D50C51900002D190000791900002900200080
S1131D600E4B9847012000E0002002B004BC9046CE
S1131D70F0BD0020F9E70020F7E70020F5E7002098
S1131D80F3E70020F1E70020EFE70020EDE7002073
S1131D90EBE70020E9E70120E7E7C046A51F0000C4
S1131DA030B585B05B4B9847002808D105B030BDED
S1131DB001AC2078584B98472279584B9A72574B6C
S1131DC0DD6B2C0008CC0020984701A92000544B5F
S1131DD0984704002B6801209847002CE6D001ABFB
S1131DE05B78082BEBD89B004E4AD3589F4601AB37
S1131DF01878494B98474C4B002BE0D09847DEE7C6
S1131E00464B1A7A012401210A431A722B22995C47
S1131E10A1439954995C0420814399540132995CFB
S1131E20A1439954995C8143995401AB187802A950
S1131E303E4B98470028C2D101AD287800213C4C84
S1131E40A04728788021A047B9E701AB19797F2200
S1131E500A40CC095000314B1B181B192833D87881
S1131E600125A843D870D8780335A843D870002A30
S1131E7012D05200294B9A181219D37E2D4A002AE7
S1131E8013D0264A127993420DD25A00D318DA009D
S1131E90224B1B689B180FE001A84279039B007832
S1131EA0254CA0478BE79B1ADBB2002B0ED15A00BE
S1131EB0D318DA00214B9B18002B00D176E71C695C
S1131EC001A84279039B0078A04778E70023F3E751
S1131ED0124B1B7ADB0700D471E7194B002B00D19E
S1131EE06DE70E4B187A0007C00F154B984766E74D
S1131EF00A4B1B7ADB0700D461E7124B002B00D19D
S1131F005DE798475BE7029B002B00D157E70398F6
S1131F10984754E7912E000009120000E4070020BE
S1131F20B51000005836000000000000E119000060
S1131F30CD24000000000000B52000007C36000025
S1131F40000000000000000070B50400124B403394
S1131F509989DB89C91A89B20D1C402900D9402509
S1131F60ADB240230C4AD356002B08DB0021002DD0
S1131F7010D100222B002000084CA04770BD002D7A
S1131F8001D18021F3E710002A00816C044B9847AB
S1131F908021ECE7004AEDE724080020B118000096
S1131FA0D9310000F8B506000D000C4F3C00403458
S1131FB0082220000A4B98470023BB64E381A381D5
S1131FC00023EB56002B06DB802100230022300087
S1131FD0044CA047F8BD0021F7E7C04624080020C0
S1131FE0D9310000B1180000F0B583B001900E00A3
S1131FF017000093194C2500403508222800184B7F
S11320009847A7640023EB81B279F3791B02134349
S11320101A1C0098834200D9021C91B20F4B403322
S11320209A81B279F3791B02134307D0002901D0B6
S1132030002F11D001980B4B984709E00023F35669
S1132040002B07DB8021002300220198064CA047C7
S113205003B0F0BD0021F6E70020F9E724080020D2
S1132060D9310000491F0000B118000010B5142236
S1132070002102484030024B984710BD240800203C
S11320805D320000014B18657047C04624080020EB
S113209070B50100054D2C00403408222000044B8B
S11320A098470023AB64E381A38170BD240800201A
S11320B0D931000070B504001D00C9094023314A1C
S11320C0D35CDB098B4212D0002D55D12E4B002B53
S11320D002D01100403198472A4B1B6D002B4DD084
S11320E0284A4032032120009847012070BD402334
S11320F0244AD356002B07DB1300906C00283FD0F2
S11321002A001900214B9847AAB21E480100403109
S1132110CB89D3189BB2CB81826C52198264CA8852
S1132120934201D03F2D23D8164B1B6D002B12D0A8
S1132130144A403202212000984700280FD040233F
S1132140104AD356002B08DB8021002300222000F4
S11321500F4CA047CAE70120EFE70021F5E7002173
S113216020000C4DA84780212000A8470120BDE78E
S11321702000094B9847B9E70020B7E70120B5E7ED
S11321800020B3E724080020D5220000D931000044
S1132190B1180000CD240000491F000010B5104BF9
S11321A05868104C2040C022920501001143596028
S11321B0596921400A435A610B4A112111700231B5
S11321C051720A4A1A605968094A114080229202DF
S11321D00A435A605A68920B9103596010BDC04675
S11321E078080020FFFFFF8F00510041780900208C
S11321F0FF3F00F030B5214A137801210B431370DF
S11322001E4B9B78DB07FBD51C4B9B78DB07FBD471
S11322101B4B1968880C1F221040184B1C8D1F255E
S1132220AC43204318854C0B188D22409201154C69
S1132230204002431A85C80D1A8D07210140090365
S1132240114802400A431A85DA7803210A43DA70F6
S1132250DA780C210A43DA700C4A5A6200221A8195
S113226006321A70054B9B789B07FBD4034B998B62
S11322709A8B0A439A8308221A8330BD0050004186
S1132280246080003FF8FFFFFF8FFFFF78080020E5
S11322908022014B1A60704700E100E08023034A6A
S11322A0D350BFF34F8FBFF36F8F704700E100E04F
S11322B0034A138901210B439BB213817047C04623
S11322C000500041024A138901218B431381704756
S11322D0005000410B785B0602D14B78052B0ED0E1
S11322E00A4B0B4A1A6059680A4A1140802292022A
S11322F00A435A605A68920B9103596070478A786E
S1132300853B1343DBB2044A9372E9E77808002063
S113231078090020FF3F00F000500041F0B58E78AE
S11323207F24344076B2F70F0022062A0CD8D31C3F
S1132330012098400D794B791B022B435B055B0D03
S1132340984201D00132F0E7072A26D06300DF1952
S11323503F01224BDF19786807231A401207204BEC
S1132360184002437A6064011E4B9C466444002E6C
S11323701EDBCB789B079B0F013322780721194082
S113238007239A4313000B43237011232371637AA9
S11323900122134363720120F0BD08794B791B02BB
S11323A003435B055B0D10488342CFD00020F3E765
S11323B0CB789B079B0F0133227807211940090131
S11323C070239A4313000B43237022232371637AEF
S11323D00222134363720120DEE7C046780800201E
S11323E0FFFFFF8F00510041FF0300007047000012
S11323F0F0B57F20084049B2CF0F4501274CA446D1
S113240065444400E4192401254EA251002801D159
S1132410002A17D000292BDB4000C01902012048F4
S1132420801842689B041B091E490A4013434360F9
S113243043689B0B9A03426040232B713C3BEB7136
S11324400120F0BD002BE5D1174A1278D20997423A
S1132450E0D03200144C34607668124C264080245C
S1132460A402344354605468A40BA6035660D1E715
S11324704000C01900010A4A10184168094A0A407C
S1132480426042689B049B0C920B9203134343608B
S113249080236B71783BEB71D2E7C0460051004159
S11324A078080020FF3F00F07809002010B50023D1
S11324B000228021034CA047034B01229A831A83F4
S11324C010BDC046F1230000005000417F230B40A3
S11324D05B01064A9446634449B2002902DB102298
S11324E05A71704720225A71FBE7C04600510041DF
S11324F07F230B405B01064A9446634449B200299A
S113250002DB11221A71704722221A71FBE7C046BE
S113251000510041F0B5DE4657464E464546E0B50B
S113252085B02D4B1B8C9BB29846002422E062019F
S11325302A4B9B1810335B689B049B0C9A468023A0
S11325405B422343DBB29B4601AF0C2200213800DF
S1132550234B984707237B705B463B715346BB6014
S1132560012138001F4B984702234A46D37112E0D9
S11325700134E4B2072C28D825000123A3404246A5
S11325801342F5D06301184A914699444B46DE79CB
S1132590F6B2B307CBD4F307EAD56D010F4B5D193F
S11325A06E68B604B60C01AD0C22002128000C4B59
S11325B0984707236B702C71AE6001212800094BEA
S11325C0984701234A46D371D2E705B03CBC9046F4
S11325D09946A246AB46F0BD005000417808002061
S11325E05D320000111600000051004130B585B085
S11325F0394B9A8B1C8B144063070FD4E3071DD40B
S1132600E3062ED423073DD40823FF33324AD35C98
S1132610DB064BD4314B984705B030BD04222E4B1A
S11326209A8301AD0832002128002D4B98470323DB
S11326306B70012128002B4B9847DFE7264B0122C2
S11326409A830F329A831A8301AD043A0021280039
S1132650234B984704236B7001212800214B984792
S1132660CEE71D4B10229A839A8201AD043A0021D1
S113267028001B4B984705236B7001212800194B38
S11326809847BFE7144B08229A8309329A82164B63
S1132690984701AC0C2200212000114B98470123DC
S11326A06370012120000F4B9847ADE701AC0C2269
S11326B0002120000A4B9847062363700B4A02ABA3
S11326C003CA03C301212000064B984711210823A4
S11326D0FF33014AD1549DE7005000411525000005
S11326E05D320000111600009D21000078090020D1
S11326F070470000F0B5C64600B582B08846019028
S11327000126012401982100124B9847092806D973
S1132710A3001C1963001C000136F6B2F2E7002581
S1132720B54212DA01980B4F2100B84730304346C6
S1132730585501982100084B984701910A2120001F
S1132740B84704000135EDB2EAE7300002B004BC3A
S11327509046F0BD69300000753100004160826030
S11327600023C36003614361013383617047000048
S113277070B50400150000206060A060E060206176
S1132780606121701A0029002000024B9847200044
S113279070BDC0465D2700000023C3600361436130
S11327A07047000010B50400014B9847200010BD8D
S11327B09927000070B504000E0015000078002170
S11327C09047E368A268934211D2636862699E5499
S11327D0E3680133E3606369581CA168054B9847BB
S11327E06161012620780121A847300070BD0026D0
S11327F0F8E7C0467531000070B504000E001500FE
S113280000780021B047E368002B1BD0002D03D0D3
S1132810636822699B5C2B702369581CA1680A4B6E
S113282098472161E368013BE3600125002D04D052
S1132830A369002B01D0013BA36120780121B0479B
S1132840280070BD0025F1E775310000F0B5CE46D3
S1132850474680B585B006000F00904601930022DC
S11328600C9930002E4B9847041EF8D1B369002B05
S11328702FD1FA5C002A01D00133FAE7B2689446FA
S1132880326970684245894149426446614351183E
S11328904246891A0022012408E0013901329C1AB7
S11328A03C5D455C641B65426541ECB2002C06D07E
S11328B0934204D90029F0D161460139EEE7002C96
S11328C007D00123B361019B002B02D04346002BA8
S11328D005D1200005B00CBC90469946F0BD307877
S11328E000210C9B984743460393B068804500D968
S11328F003903169039A9142924153424343CB1866
S113290003995B1A3361039BF26894466344F36052
S1132910B3694344B361307801210C9B9847D8E7ED
S1132920F9270000F0B583B006000F00140000235F
S11329300B606A469371C368002B04D04368026934
S11329409A5C6B469A716B469D79EDB2002002E069
S11329506B46DD7901202B00303BDBB2092B17D805
S11329600022210030000B4B98473B689A00D21894
S11329705300EB18303B3B6000226B46DA71F3687E
S1132980002BE5D0736832699A5C6B46DA71DFE735
S113299003B0F0BDF9270000F0B5DE4600B588B0FD
S11329A002900491039205930EAB1B789B460F9EF5
S11329B0012504E00027002F13D00135EDB22C00CF
S11329C0009601232A0003990298264FB84700284D
S11329D0F0D15B4601339D4201D30027EBE7012789
S11329E0E9E75B4601339C4236D202998A680B6957
S11329F04C68002B13D1013A0792320004990298D3
S1132A00194B9847031E26D0059A002A0AD1002B99
S1132A101CD0079AA418002222701F001CE0013B5E
S1132A200793EAE70B2204AB9C4662443100029808
S1132A300E4B9847031EEAD00B2204A98C4662442D
S1132A40127805999142E2D03B00E0E70022049914
S1132A500A601F0000E00700380008B004BC934679
S1132A60F0BDC0464D28000025290000F9270000CC
S1132A708368C068181A7047C368002B06D0826840
S1132A80934201D0022070470120FCE70020FAE7BE
S1132A9031494A681E239A431C3B13434B602F4B16
S1132AA0DB68DB06FBD502222C4B9A842B4BDB68BC
S1132AB0DB06FBD52A4B1A68920E2A4B1B689B0532
S1132AC09B0D92021343254A9362244BDB68DB0679
S1132AD0FBD5224B9A8C902149000A439A84224ABE
S1132AE0DA629A8C04210A439A849A8C02210A435A
S1132AF09A841A4BDB68DB06FBD51C4A1C4B5A60D4
S1132B001B4B5B78DB09FBD11A4BD96920220A43A2
S1132B10DA61596940220A435A61174A144B5A80B0
S1132B20134B5B78DB09FBD1144B802212049A60AF
S1132B30802252049A60802292049A6060213B228F
S1132B4099543A3A09395A5466201B3958541C315D
S1132B505A5401315A547047004000410008004063
S1132B60246080002860800080BB0104000703000B
S1132B70000C0040000400400640000000440041F6
S1132B8070B50400002300220021044DA84700234F
S1132B90237701336377200070BDC046712700009E
S1132BA010B5014B984710BD5D27000070B50500B6
S1132BB01400002902D1002C04D170BD0020034B65
S1132BC09847F8E72800024B9847F6E79907000072
S1132BD09927000010B50020014B984710BDC0464E
S1132BE0ED25000000B583B0007F002801D103B0BB
S1132BF000BD6B46D9710733012219000020034B35
S1132C009847431E9841C0B2F1E7C04655070000FB
S1132C1070B51400007F002800D170BD0020054B62
S1132C20984705000020044B9847641B60426041AC
S1132C30C0B2F2E7550700008506000010B50C008D
S1132C40037F002B02D10024200010BD0800064B96
S1132C509847020021000020044B984704000020FC
S1132C60034B9847F0E7C046F132000055070000D7
S1132C708506000010B582B0024C0094024CA047B7
S1132C8002B010BDF12600004D28000010B584B03C
S1132C900400080001A9044B9847020001A9200080
S1132CA0024B984704B010BDF5260000112C00001B
S1132CB030B583B006AC2478034D01950094034CE1
S1132CC0A04703B030BDC046F1260000992900009A
S1132CD010B5024A024B984710BDC046F1260000C9
S1132CE0B5270000F0B5D646474680B583B000AF9F
S1132CF005007960047F002C05D1BD4603B00CBCEF
S1132D0090469A46F0BD00201E4B9847002808D1F3
S1132D100024002C0CD10021012040421A4B98477A
S1132D20EBE72800194B98470128F2D10024F0E77B
S1132D30EA462800164CA0470730C008C0006B467E
S1132D401B1A9D466E462800A047020069460020D3
S1132D50104B984780467B68002B08D100244445DB
S1132D600DD2315D28000C4B98470134F7E702007F
S1132D7069460020094B98470020094B9847D546DF
S1132D80C9E7C04635060000A11D0000792A0000ED
S1132D90712A000055060000D12C000055070000E0
S1132DA08506000010B5007F002800D110BD014B3E
S1132DB09847FBE7E114000010B50400037F002BE3
S1132DC002D0437F002B00D010BD024B9847012353
S1132DD06377F9E70115000010B50400037F002BA9
S1132DE000D110BD01220121034B98472000034B61
S1132DF0984700232377F4E7AD2B0000B92D00009A
S1132E0010B50400034B98472000034B984720005B
S1132E1010BDC046D92D0000A527000010B5040040
S1132E20037F002B02D0437F002B00D110BD024B47
S1132E30984700236377F9E72115000010B50400D3
S1132E40037F002B00D010BD084B9847084B9847D0
S1132E5001232377074B9847002802D1064B984754
S1132E60F1E72000054B9847EDE7C046A12B000091
S1132E70912A000041150000812E00001D2E000043
S1132E8010B50020014B984710BDC04655150000F1
S1132E9010B5034B9847002800D0012010BDC04650
S1132EA0411500000378DB0704D403785B070AD5D7
S1132EB0002300E00023002B03D0027804210A43FE
S1132EC00270180070470123F5E703785B0708D404
S1132ED00023002B03D0027804218A4302701800D7
S1132EE070470378DB0701D50023F2E70123F0E7FD
S1132EF0027943791B0213435B055B0DC278920789
S1132F00920F022A0CD019D8012A21D1022904D007
S1132F10134A9A421ED301201BE08022D200F8E714
S1132F20022903D0402B17D8012012E080229200FE
S1132F30934201D000200CE001200AE0022904D0D1
S1132F4040229A420AD3012003E08022D200F8E70B
S1132F50002070470020FCE70020FAE70020F8E793
S1132F60FF03000030B58A1801E00C78091991427A
S1132F700AD24C78052CF8D18D787A342C40640030
S1132F800419ED096355F0E730BD000000487047AF
S1132F9094360000014814307047C046943600004F
S1132FA070B500280DD0042824D88000124BC558D1
S1132FB02800124B9847C0B21F2800D91F200023B5
S1132FC00EE00D4B196802220D4802300D4B984754
S1132FD0012007E05A1CEC5C5100094BCC52D3B2DF
S1132FE09842F7D801304000C0239B0003430448B3
S1132FF0038070BD0020FCE720000020F1320000B7
S113300084090020D931000010B5040003789B0026
S1133010C3185B689847207010BD70B505000C009C
S11330209047A04200D0287070BD0000044B1B687C
S1133030002B00D172B6024A136801331360704743
S1133040C4090020034A1368013B1360002B00D11C
S113305062B67047C40900200B0010B501001800C7
S113306000F08EF810BDC046002243088B4274D392
S113307003098B425FD3030A8B4244D3030B8B4275
S113308028D3030C8B420DD3FF22090212BA030C7E
S11330908B4202D31212090265D0030B8B4219D35F
S11330A000E0090AC30B8B4201D3CB03C01A52417F
S11330B0830B8B4201D38B03C01A5241430B8B42C7
S11330C001D34B03C01A5241030B8B4201D30B03B0
S11330D0C01A5241C30A8B4201D3CB02C01A5241D7
S11330E0830A8B4201D38B02C01A5241430A8B429A
S11330F001D34B02C01A5241030A8B4201D30B0283
S1133100C01A5241CDD2C3098B4201D3CB01C01A9C
S1133110524183098B4201D38B01C01A52414309A6
S11331208B4201D34B01C01A524103098B4201D394
S11331300B01C01A5241C3088B4201D3CB00C01A01
S1133140524183088B4201D38B00C01A5241430879
S11331508B4201D34B00C01A5241411A00D201469E
S1133160524110467047FFE701B5002000F006F811
S113317002BDC0460029F7D076E770477047C046C5
S113318010B513000A000100022000F0E3F810BD9E
S113319070B50D4E0D4D0024AD1BAD1005D0A30030
S11331A0F35801349847A542F9D100F0BDFA084E0E
S11331B0084D0024AD1BAD1005D0A300F358013415
S11331C09847A542F9D170BD343700003437000068
S11331D03437000040370000F0B505000F2A2FD91E
S11331E00B0003439B0734D116000C000300103E70
S11331F0350901352D01451927681F6067685F602F
S1133200A7689F60E7681034DF6010339D42F3D1F4
S11332100F239E431036851989191340032B1AD99D
S11332201E1F0023B4080134A400CF58EF50043308
S1133230A342FAD10324A643331D2240C918ED1832
S1133240002A05D00023CC5CEC5401339342FAD11C
S1133250F0BD0500F6E71A00F2E7C046F0B58307B3
S113326043D0541E002A3FD0CEB20200032502E010
S11332701A00013C38D3531C16702B42F8D1032C8E
S11332802AD9FF220A40150215432A0415430F2C9C
S113329014D927001A00103F3E09013636019E1941
S11332A0156055609560D56010329642F8D10F22B2
S11332B097431037DB191440032C0DD91A00271F2C
S11332C0BE080136B6009E1920C2B242FCD10322C8
S11332D097430437DB191440002C05D0C9B21C19DC
S11332E0197001339C42FBD1F0BD14000300C6E702
S11332F010B5830725D00378002B24D003000321C5
S113330002E01A78002A1AD001330B42F9D1196865
S11333100E4A0F4C8A188A43224206D10433196894
S11333200A4A8A188A432242F8D01A001B78002BD2
S113333003D0013211780029FBD1101A10BD181ADC
S1133340FCE70300E3E70020F8E7C046FFFEFEFECB
S113335080808080F0B54E464546DE465746E0B54F
S1133360364D83B00600286898460F00914600F059
S113337099F8334B1C68A4235B00E058002852D012
S113338043681F2B13DC5A1C0192002E28D1019A8A
S113339002339B0042601F50286800F085F800202B
S11333A003B03CBC90469946A246AB46F0BD254BC3
S11333B0002B3DD0C820400000E000BF002837D0DB
S11333C0A42200235200A15843600160A05040325F
S11333D0835004328350013301930023002ED6D04E
S11333E09A00924682444A46882154466250C42236
S11333F05200914681444A468739994012688B4667
S11334000A4394464A46614611608422414652006A
S1133410A150022EBBD102005C468D32FF321168EE
S11334200C431460B3E720004D30FF30E050A7E7B1
S1133430286800F039F801204042B1E76004002018
S11334402437000000000000034B10B5002B02D00D
S1133450024800F005F810BD0000000071340000BF
S113346010B50100002300220020FFF773FF10BDF8
S113347070B5094B094CE41AA41009D0084AA518E0
S1133480AD00ED182B68013C9847043D002CF9D1A0
S113349000F056F970BDC0464C37000050370000AC
S11334A0FFFFFF3F7047C0467047C04653656E64D8
S11334B020737472696E6773207468726F756768BD
S11334C0207465726D696E616C20746F207365651C
S11334D020726573706F6E736573210A00000000BB
S11334E068656C6C6F20776F726C6400576F726CD8
S11334F0643A2068656C6C6F210A00006563686F2C
S11335000000000052656365697665642064617437
S1133510612077696C6C206E6F772062652065632B
S1133520686F6564210A000028526567756C6172D2
S11335302066756E6374696F6E2077696C6C2063A6
S11335406561736520756E74696C20756E706C7539
S113355067676564290A0000696E74656765725F50
S113356000000000496E74656765723A200000002F
S11335707371756172655F00537175617265207650
S1133580616C75653A2000006F6E00004F6E206319
S11335906F6D6D616E642072656365697665642123
S11335A0205475726E696E67206F6E2E2E2E0A007F
S11335B06F6666004F666620636F6D6D616E642092
S11335C0726563656976656421205475726E696EEF
S11335D067206F66662E2E2E0A0000005553422087
S11335E0706C756767656420696E210A00000000CD
S11335F07E140000E21300001814000046140000BA
S11336007E1400007E1400006414000018140000EE
S11336107E1400007E1400007E1400007E1400005E
S11336207E1400007E1400007E140000F4130000D9
S1133630801B00005A1B0000821D0000341B000088
S1133640821D0000A61A00002A1B0000821D000033
S1133650C21A0000DA1A0000BE1D0000B01D0000EE
S1133660EE1D0000BE1D0000D01E0000F01E000074
S1133670001E00004A1E0000061F0000B9070000DB
S1133680390800008908000069090000990A00004F
S11336900000000012010002EF020140FECA0140D6
S11336A0000101020301000009024B000201008035
S11336B032080B00020202000009040000010202A9
S11336C00004052400200105240100010424020251
S11336D00524060001070581030800100904010000
S11336E0020A0000000705020240000007058202EA
S11336F0400000000904000054696E7955534200EB
S113370054696E79555342204465766963650000B7
S1133710313233343536000054696E7955534220C2
S11337204344430038000020F8B5C046F8BC08BC48
S11337309E46704749340000DD000000AD050000DE
S1133740F8B5C046F8BC08BC9E467047B5000000FA
S10B375008F9FF7F01000000ED
S113375800000000FF000000B9140000C8090020A0
S113376810000C000000E0FF1F0000000000000033
S1133778F4360000F8360000003700001037000067
S11337881837000000000000000000002403002097
S11337988C030020F4030020000000000000000057
S11337A8000000000000000000000000000000000D
S11337B800000000000000000000000000000000FD
S11337C800000000000000000000000000000000ED
S11337D800000000000000000000000000000000DD
S11337E800000000000000000000000000000000CD
S11337F800000000000000000000000000000000BD
S113380800000000000000000000000000000000AC
S1133818000000000000000000000000000000009C
S1133828000000000000000000000000000000008C
S113383801000000000000000E33CDAB34126DE629
S1133848ECDE05000B000000000000000000000092
S1133858000000000000000000000000000000005C
S1133868000000000000000000000000000000004C
S1133878000000000000000000000000000000003C
S1133888000000000000000000000000000000002C
S1073BB8880A002053
S9030000FC
