:10000000302C00201901000015010000150100002E
:1000100000000000000000000000000000000000E0
:1000200000000000000000000000000015010000BA
:100030000000000000000000150100001501000094
:100040001501000015010000150100001501000058
:10005000150100001501000015010000FD0600005B
:100060001501000015010000150100001501000038
:10007000E90600001501000015010000150100004F
:100080001501000015010000150100001501000018
:100090001501000000000000000000001501000034
:1000A00015010000150100001501000015010000F8
:1000B0000000000010B5064C2378002B07D1054B3B
:1000C000002B02D0044800E000BF0123237010BDC4
:1000D000740400200000000098500000084B10B588
:1000E000002B03D00749084800E000BF0748036819
:1000F000002B00D110BD064B002BFBD09847F9E731
:100100000000000078040020985000009850000083
:1001100000000000FEE70000F8B5234A234B9A4296
:1001200009D0224B204A03E01168196004330432DD
:100130001F498B42F8D31F4B02E000221A600433A0
:100140001D4A9342F9D31D4AFF211D4B8B439360F7
:10015000FD3990235B001B4AD1501B4AD3780325FD
:10016000AB4302242343D370D3780C27BB43082628
:100170003343D370154B987B302290432022104399
:100180009873997BB943314399739A7BAA4322436D
:100190009A730F4A516880230B4353600D4B984765
:1001A0000D4B9847FEE7C046985000000000002025
:1001B00074040020740400202C0C002000ED00E0EA
:1001C0000000000000700041005000410048004164
:1001D0000040004119490000010F00000120704754
:1001E00010B592B0304B9847304A314B5A60304B83
:1001F0005B78DB09FBD12F4B196A0222914319620C
:100200002C4B1B6A9B07FBD42A4B196A2A4A0A40CB
:100210001A62196A02220A431A62264B1B6A9B075A
:10022000FBD583225202224B5A60214B5B78DB09BB
:10023000FBD1224B9847002200210320204B9847F6
:100240006846204B9847032168461F4B9847002378
:100250006A46D3721373072269464A730B774B774A
:1002600011228A77CB7720228B541C3A2133CA542F
:10027000013A164922206844154B9847154A101D2B
:1002800001236946144CA047144C7034802292001C
:10029000134970312000134B984700212000124B66
:1002A0009847022012B010BDA145000000030100D4
:1002B000000C004000080040FFFCFFFFB9450000B3
:1002C000D93700002507000089360000344C0000B3
:1002D0006149000090040020C10A0000900700203E
:1002E00090050020B14300005942000070B50C4C4D
:1002F0007034002120000B4B98470B4920000B4D18
:10030000A8470B492000A8470A492000A8470A49E6
:100310002000A84709492000A847042070BDC04616
:100320009007002059420000384C0000B141000005
:100330005C4C00006C4C0000AC4C00000C4D00000C
:1003400010B5002111487030114B9847FA22D200A5
:10035000104911480430114B984700280BD10B4C21
:100360007034002120000A4B98470D4920000D4BA6
:100370009847042010BD054C703400212000044B28
:10038000984709492000074B9847F2E7900700205B
:1003900059420000204D000090040020E9090000AF
:1003A000544D0000B14100002C4D000070B50021FB
:1003B00016487030164B9847164B1969FA22D2002E
:1003C00015480430154B984700280BD10F4C70345A
:1003D000002120000E4B984711492000114B9847EF
:1003E000042070BD094C703400212000084B984750
:1003F0000D4920000B4DA847064B196920000B4BF7
:1004000098470B492000A847EAE7C046900700201C
:10041000594200001008002090040020890A0000C2
:10042000544D0000B1410000684D00000142000041
:10043000444D000070B5012800D070BD0B4B9942AF
:10044000FBD10B4C703420000A4B98470A4D2A0010
:100450000A4920000A4EB0470A4C043420000A4BD7
:1004600098472A0009492000B047E6E7FFFF00004F
:10047000900700202141000000000020754300008B
:10048000CD4500009004002085070000D50E000037
:1004900000230370074B4360074B8360074BC36027
:1004A000074B0361074B4361074B8361074BC361F4
:1004B0007047C046DD010000E1010000F1040000CA
:1004C000ED0200008906000041030000AD030000BA
:1004D00010B501230022034903487030034CA047A4
:1004E00010BDC046784D000090070020E941000093
:1004F00010B582B002226B46DA7100210D487030CF
:100500000D4B98470D4B9847002809D16B46DC1DD1
:100510000B4A072120000B4B9847207802B010BDF2
:10052000094904487030094B984703226B46DA7139
:10053000ECE7C0469007002059420000D1040000BB
:10054000F50500008F4500007C4D0000B141000022
:1005500010B5094B1C7D002C06D1002C02D00022C6
:10056000054B1A75200010BD04487030044B9847A5
:100570000028F2D00024F0E71008002090070020A7
:100580001943000010B501230022034903487030CD
:10059000034CA04710BDC046A44D000090070020AA
:1005A000E941000010B501230022034903487030DF
:1005B000034CA04710BDC046B84D00009007002076
:1005C000E941000010B5084B1B7D002B06D0002030
:1005D000002802D00122044B1A7510BD0348703068
:1005E000034B9847F4E7C04610080020900700200E
:1005F0001943000010B5002110487030104B984787
:10060000104B9847002805D10F4B9847002808D079
:10061000022005E00D49094870300D4B9847022033
:1006200010BD0C4B9847002801D10720F8E70A4974
:1006300002487030064B98470320F1E790070020EE
:1006400059420000A505000051050000BC4D000006
:10065000B1410000C5050000E44D000010B582B0B6
:10066000082300930023044A0449103104487030E1
:10067000044CA04702B010BDF84D00001008002047
:10068000900700202542000010B582B004226B467E
:10069000DA7100210E4870300E4B98470E4B984788
:1006A00000280CD005226B46DA716B46DC1D0B4A24
:1006B000072120000A4B9847207802B010BD094B53
:1006C00098470028F1D006226B46DA71EDE7C04664
:1006D000900700205942000085050000F505000044
:1006E0008F4500005D06000010B502480430024B43
:1006F000984710BD90040020AD07000010B50248D7
:100700007030024B984710BD9007002075410000E3
:1007100010B502490120024B984710BDFFFF0000B1
:100720003504000070B50400124B9847124D2B8819
:10073000A383AB78A37720001F30291D03220F4E1F
:10074000B0472000223003222900B0470C4BA3629F
:100750000023E3620122226302216163A363E36356
:100760003E316354082002316052023162544432F7
:10077000A35470BDED370000040000206149000063
:10078000C0CA893670B504001130FF30054B984758
:1007900020005130FF30002300220021024DA847E5
:1007A000200070BDDD3B0000B130000010B51130FD
:1007B000FF30014B984710BDFD3D0000F0B583B000
:1007C00000AF05007960386A5C1C19000831C9085F
:1007D000C9006E46711A8D466E46327000229A42EA
:1007E00004D2511C825C72540A00F8E70423FF33E0
:1007F000EB5C2A1DFF32507800020343907800041E
:100800001843074B98470028F0D128001130FF30DB
:100810007B6832002100034CA047BD4603B0F0BD09
:1008200021360000913F000010B584B00C0A03ABE4
:100830001C7059709A70009303230D220021024C02
:10084000A04704B010BDC046BD07000070B584B01D
:1008500004000A0A03AB1A705970009302231D2288
:100860000221084DA8471134FF3400212000064E14
:10087000B0470B256D4429002000B047287804B00C
:1008800070BDC046BD070000393D0000F0B587B01F
:10089000060003900023009312220321134CA0476B
:1008A0001136FF3600213000114B984700250024F7
:1008B000012D0DDC0F2702AB9C4667443900300048
:1008C0000B4B984723023C781C43A4B20135EFE759
:1008D00005AB084A12881A800093022302220021E5
:1008E0000398024DA847200007B0F0BDBD070000E7
:1008F000393D0000444E0000F0B587B005000F0000
:10090000160004AC0622002120001A4B98478523CC
:100910005B00EB5A1A0A22706370E77086235B0053
:10092000EB5C2371009406238C2200212800124CDA
:10093000A047320C03AB1A70320A5A709E700093B3
:100940000323832200212800A04783235B00EB5A66
:10095000EA1DFF32907800041843084B9847041EA4
:10096000F3D02800064B9847C30700D4002420008A
:1009700007B0F0BDE5490000BD07000021360000CA
:100980008D08000070B5C2B0002402AB1C708C4210
:1009900005D2651C165D02AC66552C00F7E74B1CB2
:1009A00002AA00920E220021014CA04742B070BD65
:1009B000BD07000010B5040080235B00C058074B42
:1009C00098470023064A934201D80133FAE780236F
:1009D0005B00E058034B984710BDC04669360000E5
:1009E0008713000049360000F0B5C7B005000F00BE
:1009F000039245AB00241C70009301238022002148
:100A00000E4EB04705AB1C703B5D002B06D0FE2C94
:100A100004DC621C05A98B54D4B2F5E7631C05AA5B
:100A200000920E2200212800044FB847039A2100AB
:100A30002800034B984747B0F0BDC046BD070000F3
:100A4000F9080000F0B587B004000F00150003930B
:100A500005AB00221A700093012380320021074E5B
:100A6000B0473A0029002000054B9847039A290017
:100A70002000044B984707B0F0BDC046BD070000FA
:100A800085090000F908000030B585B004000800B1
:100A9000150001A9044B9847C2B22B0001A9200000
:100AA000024CA04705B030BD35300000450A0000BB
:100AB00010B55130FF30014B984710BD9D300000FC
:100AC000F0B5CE46474680B58FB004000D0011004A
:100AD0001A00D74B984780277F00E0192900223160
:100AE0000322D44B99469847002300220121E05964
:100AF000D14EB047E059D14B98472000D04B984792
:100B0000231DFF33984629001C3103221800C847D3
:100B1000E71DFF3729001F3103223800C84704238F
:100B2000FF33E35C424650780002034390780004B0
:100B30001843002300220021B04783235B00E35ABF
:100B4000B87800041843002300220021B047200099
:100B50001130FF302200803280230193009429005D
:100B6000B84EB0470DAB00221A70009301238032BB
:100B700000212000B44EB0470CAB01221A70009344
:100B80000123893200212000B047A86AC10940062C
:100B9000AE4A0023AE4FB847020E0BAB1A70020CE0
:100BA0005A70020A9A70D87000930423862200219A
:100BB0002000B047EB6A012B2CD01DDD022B23D087
:100BC000032B03D10AAB02221A705A700AAB00221F
:100BD0009A700132DA7000930423943200212000CD
:100BE000994EB047162209AB1A702B6B072B1AD8F7
:100BF0009B00984AD3589F46002BE7D10AAB0422AA
:100C00001A7003325A70E1E70AAB02221A700132FD
:100C10005A70DBE70AAB03221A7002325A70D5E72A
:100C2000002209AB5A7009AB009302238E220021E7
:100C30002000854FB847884E31002000874B9847E9
:100C400023226A44107013781E210B43DBB2137009
:100C50001278D2B231002000814B984708AB0022B5
:100C60001A705A70009302238F3200212000B84777
:100C70006B6B062B22D89B007A4AD3589F460122E1
:100C800009AB5A70CFE7022209AB5A70CBE70322B7
:100C900009AB5A70C7E7042209AB5A70C3E70522B3
:100CA00009AB5A70BFE7062209AB5A70BBE70722AF
:100CB00009AB5A70B7E7052207AB1A70AB6B012B73
:100CC0002DD0022B2FD0002B25D0EB6B012B00D188
:100CD0009EE02CDD022B00D19EE0032B2CD10422C0
:100CE00007AB9A7028E0062207AB1A70E6E70722E6
:100CF00007AB1A70E2E7082207AB1A70DEE7092299
:100D000007AB1A70DAE70A2207AB1A70D6E70B2294
:100D100007AB1A70D2E7042207AB5A70D5E7052259
:100D200007AB5A70D1E7062207AB5A70CDE7002B0C
:100D300002D1012207AB9A704023EA5C07ABDA705C
:100D4000009304238B22002120003F4EB0474649E8
:100D50002000424B98471B236B441870AB6B022B4F
:100D60005ED01B226A44137804210B43DBB213705C
:100D70001B236B441A78D2B23B492000384B98476A
:100D80004223EF5AC833E752C63BEB5C98468623B2
:100D90005B004246E25405AE062200213000334B90
:100DA00098470123B370FE33F3703B0A33707770BA
:100DB00043463371009606238C2200212000224EE8
:100DC000B04703AA2A4B0433110081CB81C10092A2
:100DD0000823082200212000B04702AB07221A7026
:100DE00039325A704523EB5C002B43D102AB1422FD
:100DF0009A701032DA7002AB009304230D220021A6
:100E00002000114CA0470FB00CBC90469946F0BD95
:100E1000022207AB9A708FE7032207AB9A708BE729
:100E20001B226A44137804218B431370A0E7C04649
:100E3000B10A000061490000653500004936000034
:100E4000B5090000013F0000BD0700000048E801AF
:100E5000F5460000084E0000D80800004D080000CC
:100E600029080000284E000089080000E54900001C
:100E7000444E000002AB0C3A9A701032DA70BAE7B6
:100E800010B55130FF30014B984710BDD9300000EC
:100E900030B585B004000B4B984703AB00221A70A5
:100EA00000930123803200212000074DA847200035
:100EB0001130FF30054B98472000054B984705B08F
:100EC00030BDC046B5090000BD0700008D3C0000E4
:100ED000810E000010B50400064B984720005130E9
:100EE000FF30054B984720001130FF30034B9847E7
:100EF000200010BD910E0000E5300000D53C000040
:100F000000B589B06846034B98476846024B98473E
:100F1000FBE7C046910400007D45000070B5040069
:100F20000500103528000F4B98473F2801D80020B6
:100F300070BDE17800200C4B98470028F8D02800BD
:100F4000084B98473F2805D8E1780020074B984781
:100F50000020EDE72200B832E17840230020044C65
:100F6000A047E5E7D5190000A1210000C921000034
:100F7000F121000010B503009C20400058431030C0
:100F8000024B1818024B984710BDC0462808002095
:100F9000A319000070B5084C9C235B00584325182A
:100FA00092B210302018054B984704002800044BDB
:100FB0009847200070BDC04628080020211A000074
:100FC0001D0F000070B505002A4B9847002804D17A
:100FD0000023002B09D1002070BD274B9847002823
:100FE00001D10123F5E70023F3E79C2464006C435F
:100FF0002034224B1C1904342000214B9847002830
:1010000001D10020E8E79C2252006A431B4B9B1849
:10101000997800201B4B9847002801D10020DBE77E
:101020009C235B006B43F833144EF61840223100CA
:101030002000154B9847041E0ED09C235B006B4389
:101040000E4DED18A9780300320000200F4DA8477F
:1010500000280CD02000BFE79C235B006B43074DAA
:10106000ED18A97800200A4B98470020B4E700202B
:10107000B2E7C046211E0000311E000028080020F3
:10108000A3190000A1210000211A0000F121000095
:10109000C921000070B505009C246400444320343D
:1010A000094B1C19043492B22000084B98470600E3
:1010B0002000074B98473F2801D8300070BD28001A
:1010C000044B9847F9E7C04628080020911A000011
:1010D000A3190000C50F000010B59C235B0043431B
:1010E00020330348C0180430024B984710BDC04657
:1010F00028080020A11A0000F0B583B09C225200FD
:1011000000211948194B98470026002E01D003B042
:10111000F0BD154C9C256D0075436319FF225A7173
:1011200000221349D980012119819A72DA720822AA
:101130001A73290038316118280010302018002354
:101140000093013338320B4FB847290078316118CA
:101150002800203020180430012300934022B84793
:101160000136F6B2D1E7C04628080020E549000064
:1011700000C2FFFF71190000F8B50025002D00D056
:10118000F8BD0D4C9C2676006E43A0190522002167
:101190000A4B9847300010302018094FB8472036C6
:1011A000A41904342000B84701212000054B9847BA
:1011B0000135EDB2E2E7C04628080020E54900000D
:1011C000A11A0000BB1A0000F0B583B005004B79EE
:1011D000022B03D00024200003B0F0BD8B79022B3A
:1011E00001D00024F7E70023002B11D118009C2622
:1011F00076005E43284CA419A478002C02D0013359
:10120000DBB2F1E79C2676007043234E361800E0EF
:101210000026002E39D08B7833700F78CF1909242F
:101220007B78242B06D1944204D83B781C19A4B2B5
:10123000FF18F5E7052B06D07B78042B10D0300083
:10124000164B9847C7E739002800154B98470028E8
:101250001DD0BB7873703B781C19A4B2FF18EBE764
:101260007B790A2BEBD139780C19A4B27918B31C0D
:101270000193F31C0093022302222800094DA84782
:10128000002806D00E34A4B2D9E70024A3E7002436
:10129000A1E700249FE7C046280800201D0F00009A
:1012A000F920000039210000F8B5150012786023FC
:1012B0001340202B01D00020F8BD404A0024002C10
:1012C00072D116782F796B791B023B439E4204D072
:1012D0000134E4B23932FF32F1E76B78212B21D0AF
:1012E00009D9222B29D0232B60D101294BD00329E6
:1012F0004ED00120E0E7202B58D1012903D003294B
:1013000008D00120D8E70632072329002C4CA0473B
:101310000120D1E72B4B002B4AD0911D200098478C
:101320000120C9E7012901D00120C5E706320723C2
:101330002900234CA0470120BEE7012903D003293F
:1013400006D00120B8E729001F4B98470120B3E7DA
:10135000AB78E9780902194301230B401D004808C6
:1013600001260640117159425941C9B22432100078
:10137000164B9847164B002B1CD03200290020003A
:101380009847012098E729000F4B9847012093E7E1
:10139000104B002B10D0AB78E978090219432000DC
:1013A0000C4B9847012087E7002085E7002083E762
:1013B000012081E701207FE701207DE72808002048
:1013C0002929000000000000E5280000BB1A0000E9
:1013D0000000000000000000F0B5D64600B582B065
:1013E00000908A461D000026002E09D0002E72D1E2
:1013F000FB789A4512D0BB789A4545D001246BE022
:101400009C277F007743394BDF19FB785345EDD09C
:10141000BB789A45EAD00136F6B2E5E710239C4640
:10142000BC44634601933900B831AAB26046304BE0
:101430009847304B002B17D07B79FF2B14D000241A
:1014400000E00134AC420FD27A793B19B8331B78F3
:101450009A42F6D10198284B98470028F1D1797922
:101460003000244B9847ECE7244B002B04D0019824
:10147000214B9847002803D03800214B9847BAE702
:1014800030001E4B9847F7E71E4B002B01D0300071
:10149000984730001C4B9847002801D001241BE0DE
:1014A00038002430194B984700281AD1002D1AD043
:1014B000AB0601D001240FE0B9780098144B98478F
:1014C000041E01D1012407E0B9780023002200980E
:1014D000104DA84700E00024200002B004BC924652
:1014E000F0BD0124F8E70124F6E7C04628080020F3
:1014F000911A000000000000C71900000000000061
:101500001D0F000000000000C50F0000A31900001F
:10151000A1210000F12100008A1892B2914202D864
:1015200083899A4202D94089121892B210007047FA
:101530008A1A92B2914202D383899A4202D940898F
:10154000121A92B210007047838801E0C91A89B25A
:101550008B42FBD908007047F8B505000C0011005C
:101560001E00D31A9BB2B24202D242899B1A9BB28E
:10157000AF889F4205D23A0028000A4B984728823C
:101580003B00002B01D10020F8BD31002800064BA4
:1015900098472968EA88504309182000034B984768
:1015A0000120F1E7311500004915000061490000F4
:1015B00030B583B0040093080CE00B784878000243
:1015C00018438B781B041843CB781B060343236016
:1015D00004312B005D1EADB2002BEED103331A4057
:1015E00001D103B030BD0023019301A8024B9847FD
:1015F000019B2360F5E7C04661490000F0B5CE4687
:10160000474680B585B0070001910CA90978848808
:10161000E41AA4B2151BADB2C08806006643B6B288
:10162000B0464543ADB243433E68B14699440029B4
:1016300006D0012918D005B00CBC90469946F0BDE3
:10164000944205D34243494601982B4B9847F2E711
:1016500042464946019E3000274CA0473968300079
:1016600040442A00A047E6E794421ED203234446A2
:101670009C43220049460198204B984723004B4445
:1016800003204246104035D00422121A92B2291C7F
:10169000954200D9111C8CB2E2B2FF2121406D1A93
:1016A000ADB20021039103AC0BE0424392B2494634
:1016B0000198124B9847BEE7187820700134080053
:1016C0000133411EC9B20028F6D1396804E00A7816
:1016D000227001341A000131531EDBB2002AF6D108
:1016E000019B039A1A60002DA5D02A000198034B94
:1016F0009847A0E73968F6E761490000B115000096
:10170000F0B585B00500029103920AAA11880BAAD0
:1017100017785C1AA4B28B4202D24289A41AA4B2EE
:10172000AE88A64208D23200190028000C4B984718
:101730002882298A89B23400002C0DD0039A944261
:1017400000D314002800074B98470300009722009D
:1017500002992800044DA847200005B0F0BDC046FE
:101760003115000049150000FD15000030B583B0AB
:1017700004001D00C3899BB2008A019500902000DF
:10178000064DA8470500218A89B202002000044BBB
:1017900098472082280003B030BDC04601170000E2
:1017A0001915000030B583B0950809E00B68037087
:1017B0001D0A45701D0C85701B0EC370043025007A
:1017C0006C1EA4B2002DF1D103231A4001D103B045
:1017D00030BD0B68019301A9014B9847F7E7C0465C
:1017E00061490000F0B5CE46474680B585B0070098
:1017F00001910CA90878BC88E41AA4B2151BADB2FB
:10180000F9880E006643B6B2B0464D43ADB24B43C5
:101810003E68B1469944002806D0012818D005B08A
:101820000CBC90469946F0BD944205D34A430199B9
:1018300048462A4B9847F2E74246019E3100484607
:10184000264CA0473868310041442A00A047E6E70B
:1018500094421FD2032344469C43220001994846E8
:101860001F4B984723004B4403214246114033D07D
:101870000422521A92B2281C954200D9101C84B23C
:10188000E2B2FF2020402D1AADB20198006803900B
:1018900003AC0BE04A4392B201994846104B98477B
:1018A000BDE721781970013401000133481EC0B230
:1018B0000029F6D1386804E02278027001341A0059
:1018C0000130531EDBB2002AF6D1002DA7D02A002A
:1018D0000199034B9847A2E73868F6E76149000091
:1018E000A5170000F0B585B004000393002A37D097
:1018F000C789BFB2038A9BB2007A002824D1A0888E
:10190000FD1AADB29F4202D26389ED1AADB2431BFC
:101910009BB2151C9A4200D91D1CADB20E003900B5
:101920002000104B98470300039A00922A003100D0
:1019300020000D4EB0472A00390020000B4B98477D
:10194000E081280005B0F0BDA588AA4205D3521B4E
:10195000E68856438E191F00E1E70E001500DEE70A
:101960001500EEE749150000E51700001915000005
:1019700030B503AC257880242402A2420FD8016040
:101980008280C3800572520092B2013A92B2828183
:10199000D24342810023C3810382012030BD002055
:1019A000FCE7C18989B2028A92B28B1A9BB291423A
:1019B00002D242899B1A9BB28288101C9A4200D99B
:1019C000181C80B27047C389008A181A43425841D4
:1019D000C0B2704710B5C489A4B2018A89B28288A6
:1019E000631A9BB28C4202D240891B1A9BB2D01A56
:1019F00080B210BD70B50400C28992B2038A9BB256
:101A0000054DA8470500218A89B282B22000034B08
:101A100098472082280070BD591500001915000054
:101A200010B50023014CA04710BDC0466D17000043
:101A300070B504000E00C589ADB2028A92B2AB1A2D
:101A40009BB2954202D242899B1A9BB2A2889A42CB
:101A500013D0290020000B4B9847E288504323689D
:101A60009C4660443100084B984701222900200021
:101A7000064B9847E081012070BD207A0028E8D10C
:101A8000FAE7C04649150000614900001915000039
:101A900010B50023014CA04710BDC046E51800005A
:101AA0000023C381038283885B009BB2013B9BB20E
:101AB0008381DB434381012070470172012070471D
:101AC00070B5050000240FE0E31ADBB2002B1ED135
:101AD0005A00D318DA00184B9B18002B2AD05B68E9
:101AE000280098470134E4B2144B1B795A1C9442E5
:101AF0000FDA134A002A08D09C42E5D2620012197C
:101B0000D1000E4B1B685B18E7E72300DEE70023DC
:101B1000E3E70A4C2000083033220021094DA84792
:101B200020000B301022FF21A84720001B3010227C
:101B3000FF21A84770BDC046DC4E000060090020B0
:101B400000000000E549000010B5024B9847024B29
:101B5000984710BDC11A0000AD29000070B50500FE
:101B60000C001600C868044B9847E3683200012156
:101B70002800984770BDC046C5290000F0B5DE4674
:101B8000574680B585B002900139C8B2564B984788
:101B9000002800D19DE04378022B05D0002005B03D
:101BA0000CBC92469B46F0BDC1798B0629D501221B
:101BB0004E4C1201237A1025AB43134323724B067C
:101BC00021D50122494952010B7A2024A343134312
:101BD0000B72060009368278C3781B0213438246D3
:101BE0009A4456456FD273780B2B0ED001239B4637
:101BF0007378042B6FD153469D1BABB20193002425
:101C000020E00022D4E70022DCE7F3789B4633781B
:101C1000F618EDE7E31ADBB2002B27D15A00D318F0
:101C2000DD00334B5D19002D57D0019A3100029829
:101C3000AF68B8470700082802D9019B834217D232
:101C40000134E4B20394294B1B795A1C944232DAD2
:101C5000284A002A08D09C42DCD263001B19DD0010
:101C6000224B1B685D19DEE72300D5E70025DAE784
:101C70005B46012B10D00022934514D9B378D318BA
:101C8000DBB21A49C918C97AFF2928D11749CB18DC
:101C9000DC720132D2B2EFE7AA68174B9A42EAD15E
:101CA00002239B46E7E711481B3023003A0031002E
:101CB000124CA047F6190D4B1B790133039A9A4237
:101CC0008FDB00206BE70E4B002B0AD098470120DA
:101CD00065E7002063E7002061E700205FE7002060
:101CE0005DE701205BE7C046094500006009002070
:101CF000DC4E000000000000C9110000D9440000C3
:101D00000000000070B504000D008B78C878000258
:101D10001843020AC0B20F2A51D893002E49CB585B
:101D20009F462E4B984702001223290020002C4C7E
:101D3000A04770BD2B4B002B43D09847002801D102
:101D40000020F6E78278C3781B02134302002900C3
:101D50002000234CA047ECE7022A07D0224B002B9F
:101D600031D09847002804D10020E2E71F4B984764
:101D7000F8E78278C3781B02134302002900200091
:101D8000174CA047D5E72B79697909021943184BFD
:101D90009847002819D00378020029002000104C31
:101DA000A047C6E7134B002B11D09847002810D04E
:101DB0000378020029002000094CA047B9E7002061
:101DC000B7E70020B5E70020B3E70020B1E7002027
:101DD000AFE70020ADE7C046504E000001450000CF
:101DE0002929000000000000000000000945000053
:101DF000154500000000000010B5002804D1054B77
:101E00001878054B984710BD024B1878034B98473C
:101E1000F9E7C04610000020DD2B0000D12B0000A8
:101E2000024B587A431E9841C0B2704760090020A7
:101E3000024B187A4007C00F7047C0466009002067
:101E400010B5054B002B05D0044B1878024B984772
:101E5000012010BD0020FCE7F12B00001000002045
:101E600010B5054B002B05D0044B1878024B984752
:101E7000012010BD0020FCE7052C00001000002010
:101E8000034B1878FF38431E9841C0B27047C046D4
:101E900010000020F8B50600244B9847051E01D01D
:101EA0002800F8BD224F3800083033220021214B92
:101EB0009847214C0434201D204B9847FC63204B4D
:101EC000002B03D01A4C201D9847206000240EE000
:101ED000E31ADBB2002B1DD15A00D318DA00194BDC
:101EE0009B18002BDCD01B6898470134E4B2104BE0
:101EF0001B795A1C94420FDA114A002A08D09C42DE
:101F0000E6D262001219D100094B1B685B18E8E7A2
:101F10002300DFE70023E4E7074B1E7030000A4B85
:101F200098473000094B98470125B9E7811E00000A
:101F300060090020E549000010000020A11A0000FF
:101F400000000000DC4E0000352B0000D12B00000B
:101F5000F0B585B005000E004378032B00D186E074
:101F60001CD9042B3DD0052B00D0A6E05D4B1B7A7D
:101F7000DB0700D4ABE05B4B1A7A04218A431A7268
:101F8000DC6B002E47D0201D2900574B9847002EB0
:101F900000D09CE023680120984798E0022B00D0F5
:101FA0008BE0504B1A7A01218A431A721A7A013156
:101FB0008A431A7200225A721A7A02318A431A72BA
:101FC000DC6B002E09D0201D2900474B9847002EBE
:101FD0007DD123680120984779E000202368984745
:101FE000F1E7404B1B7ADB0771D53E4B1A7A04218F
:101FF0000A431A72DC6B002E09D0201D29003A4BCF
:102000009847002E63D12368012098475FE00020A5
:1020100023689847F1E7002023689847B3E7E31A5D
:10202000DBB2002B21D15A00D318DA002F4B9B18BA
:10203000002B05D05B69002B02D02878696898478F
:102040000134E4B2274B1B795A1C944211DA284A16
:10205000002A08D09C42E2D262001219D100214B22
:102060001B685B18E4E72300DBE70023E0E70024BC
:10207000E8E71C4B1B7A5B0729D51A4C237A04220C
:102080009343237201AF083200213800194B98475F
:102090002B783B7005237B70E46B002E09D0201D4C
:1020A00001A9114B9847002E11D1236801209847B0
:1020B0000DE0002023689847F1E70A4BDC6B002E07
:1020C00007D0201D2900084B9847002E05D005B0E9
:1020D000F0BD002023689847F3E723680120984764
:1020E000F5E7C04660090020311A0000DC4E000010
:1020F00000000000E549000070B50C000A4B1D7897
:102100008A787F231340072B01D9002070BD074B2D
:10211000997A2000064B98470028F7D02100280024
:10212000044B9847F2E7C0461000002060090020E9
:10213000654400005D2C0000F0B5C64600B582B0D5
:1021400001900C0016001D00089B9846002704E033
:10215000099A13702378E4180137B74214DA6378C8
:10216000052B16D1E3789B079B0FAB4213D12100BF
:1021700001980A4B9847002807D0A3785AB2002A42
:10218000E6DB42461370E5E7012002B004BC90464E
:10219000F0BD0020F9E70020F7E7C046F920000075
:1021A00010B57F200840C90940004018203004497C
:1021B0000831081803300021024B984710BDC04673
:1021C000600900201944000010B57F200840C909AB
:1021D000400040182030044908310818033000211D
:1021E000024B984710BDC046600900203F440000E4
:1021F000F8B5CE46474680B5194800787F250D4092
:10220000CE096F00174CE419A4192834E478E407C8
:1022100004D500200CBC90469946F8BD114CE41939
:10222000A4192827B946A1444C46E4780127BC46A6
:1022300067463C4327004C46E7700B4CA0470028FC
:10224000E8D16D00074B5D19AE192836F3780122ED
:102250009343F370F37803329343F370DAE7C046A5
:102260001000002060090020312D000070B50F4BD8
:1022700018787F240C40CD0962000D4B9B185B1928
:102280002833DB789B0700D570BD0A4B9847630065
:10229000074CE41864192834E37802221343E370EE
:1022A000E37801221343E370EEE7C04610000020FC
:1022B000600900200D2E000070B50F4B18787F24A8
:1022C0000C40CD0962000D4B9B185B192833DB785D
:1022D0009B0700D470BD0A4B98476300074CE41875
:1022E00064192834E37802229343E370E378013AD7
:1022F0009343E370EEE7C046100000206009002021
:10230000312E00007F230B40CA095B000349C91826
:1023100089182831C8788007C00F704760090020ED
:10232000F0B5C64600B582B004000D000020C94BD0
:1023300098472B785B069B0F022B00DDB4E12B78CE
:1023400060221A40402A0CD02B78DB06DB0E012BD2
:1023500000D1CCE0002B11D0022B00D112E10020E3
:10236000A3E1BD4B002B00D1A3E11E001800B94B27
:1023700098472A0001212000B04796E1202A0AD080
:10238000002A00D09BE16B78092B00D999E19B00D2
:10239000B24AD3589F462B790F2B00D98BE1B04A14
:1023A000D318DB7AAF4A002A13D0AD4A12799A4289
:1023B0000DD95A00D318DA00A94B196889180029D9
:1023C00000D17AE12A002000A74B98476DE19B1AC3
:1023D000DBB2002B05D15A00D318DA00A3498918C3
:1023E000EDE70021EBE72800A14B9847A9782000F2
:1023F000A04B98479A4A137A02210B43137201208B
:1024000053E1974B5B7A6A46063213700123290029
:102410002000994CA047012047E1AE78904B5B7AB1
:10242000DBB29E4205D08E4B5B7A002B09D1002E89
:1024300013D18B4B5E7229002000904B98470120EE
:1024400033E120008E4B9847854FBB7A9846200099
:102450008C4B98474346BB72E9E7310020008A4B1A
:102460009847002800D120E1E3E729002000874BAE
:1024700098471AE1AA78EB781B021343012B01D08D
:10248000002012E1764A117A07330B4313722900B8
:1024900020007A4B9847012007E1AA78EB781B02CD
:1024A0001343012B01D00020FFE06D4A137A08216D
:1024B0008B43137229002000704B98470120F4E0F1
:1024C000674B1A7A93060ED5012312070DD400220A
:1024D00013436A4606321380022329002000664C0B
:1024E000A0470120E1E00023EFE70222F0E72B798B
:1024F0000F2B00D9E7E05A4AD318DB7A594A002A51
:102500002BD0574A1279934225D25A00D318DA00B9
:10251000534B19688918002900D1D6E02A00200001
:10252000514B9847002800D0BFE02B7860221A4218
:1025300000D0BAE06B780A3BDBB2012B00D9B4E0E3
:10254000444B98476B780A2B11D0290020004B4B45
:1025500098470120A9E09B1ADBB2002B05D15A0055
:10256000D318DA0041498918D5E70021D3E76B4633
:102570009A1D002313700133290020003E4CA04710
:10258000012092E029796B791B020B43D9B27F209D
:102590000840CB09072800D999E04000304E301898
:1025A000C318DB7E2F48002814D0307983420FD225
:1025B0005800C318D80036683618002A14D0002EE8
:1025C00000D186E02A0031002000274B98476CE0BC
:1025D0001B1ADBB2002B05D15800C318D800234EBC
:1025E0003618EAE70026E8E76B78012B12D0002BBB
:1025F00003D0032B0ED0002057E02000244B984737
:102600006B469A1D10800223290020001A4CA04717
:1026100001204AE0A878EA781202024304D1012B93
:1026200013D020001B4B9847002E54D02A003100B5
:1026300020000D4B98470020064B98472C23084A52
:10264000D35CDB072AD501202FE02000124B9847EE
:10265000EAE7C046C529000000000000904E0000D7
:1026600060090020000000005D1B0000DC4E00003F
:10267000D1290000ED2D000029290000E5280000E7
:102680002D2D0000C11A00007D1B0000051D00005B
:10269000052300006D220000B9220000290020005F
:1026A0000E4B9847012000E0002002B004BC904689
:1026B000F0BD0020F9E70020F7E70020F5E7002053
:1026C000F3E70020F1E70020EFE70020EDE700202E
:1026D000EBE70020E9E70120E7E7C046E528000036
:1026E00030B585B05B4B9847002808D105B030BDA8
:1026F00001AC2078584B98472279584B9A72574B27
:10270000DD6B2C0008CC0020984701A92000544B19
:10271000984704002B6801209847002CE6D001ABB5
:102720005B78082BEBD89B004E4AD3589F4601ABF1
:102730001878494B98474C4B002BE0D09847DEE780
:10274000464B1A7A012401210A431A722B22995C02
:10275000A1439954995C0420814399540132995CB6
:10276000A1439954995C8143995401AB187802A90B
:102770003E4B98470028C2D101AD287800213C4C3F
:10278000A04728788021A047B9E701AB19797F22BB
:102790000A40CC095000314B1B181B192833D8783C
:1027A0000125A843D870D8780335A843D870002AEB
:1027B00012D05200294B9A181219D37E2D4A002AA2
:1027C00013D0264A127993420DD25A00D318DA0058
:1027D000224B1B689B180FE001A84279039B0078ED
:1027E000254CA0478BE79B1ADBB2002B0ED15A0079
:1027F000D318DA00214B9B18002B00D176E71C6917
:1028000001A84279039B0078A04778E70023F3E70B
:10281000124B1B7ADB0700D471E7194B002B00D158
:102820006DE70E4B187A0007C00F154B984766E707
:102830000A4B1B7ADB0700D461E7124B002B00D157
:102840005DE798475BE7029B002B00D157E70398B1
:10285000984754E705440000491B00006009002028
:10286000F5190000B84E0000000000002123000010
:102870000D2E000000000000F5290000DC4E0000D5
:10288000000000000000000070B50400124B40334F
:102890009989DB89C91A89B20D1C402900D94025C4
:1028A000ADB240230C4AD356002B08DB0021002D8B
:1028B00010D100222B002000084CA04770BD002D35
:1028C00001D18021F3E710002A00816C044B984766
:1028D0008021ECE7004AEDE7A0090020F12100008B
:1028E00061490000F8B506000D000C4F3C00403473
:1028F000082220000A4B98470023BB64E381A38190
:102900000023EB56002B06DB802100230022300041
:10291000044CA047F8BD0021F7E7C046A0090020FD
:1029200061490000F1210000F0B583B001900E0074
:1029300017000093194C2500403508222800184B39
:102940009847A7640023EB81B279F3791B02134304
:102950001A1C0098834200D9021C91B20F4B4033DD
:102960009A81B279F3791B02134307D0002901D071
:10297000002F11D001980B4B984709E00023F35624
:10298000002B07DB8021002300220198064CA04782
:1029900003B0F0BD0021F6E70020F9E7A009002010
:1029A0006149000089280000F121000010B51422BF
:1029B000002102484030024B984710BDA00900207A
:1029C000E5490000014B18657047C046A00900208A
:1029D00070B50100054D2C00403408222000044B46
:1029E00098470023AB64E381A38170BDA009002058
:1029F0006149000070B504001D00C9094023314A37
:102A0000D35CDB098B4212D0002D55D12E4B002B0D
:102A100002D01100403198472A4B1B6D002B4DD03E
:102A2000284A4032032120009847012070BD4023EE
:102A3000244AD356002B07DB1300906C00283FD0AC
:102A40002A001900214B9847AAB21E4801004031C4
:102A5000CB89D3189BB2CB81826C52198264CA880D
:102A6000934201D03F2D23D8164B1B6D002B12D063
:102A7000144A403202212000984700280FD04023FA
:102A8000104AD356002B08DB8021002300222000AF
:102A90000F4CA047CAE70120EFE70021F5E700212E
:102AA00020000C4DA84780212000A8470120BDE749
:102AB0002000094B9847B9E70020B7E70120B5E7A8
:102AC0000020B3E7A0090020152C00006149000098
:102AD000F12100000D2E00008928000010B5104BD8
:102AE0005868104C2040C0229205010011435960E3
:102AF000596921400A435A610B4A11211170023170
:102B000051720A4A1A605968094A11408022920299
:102B10000A435A605A68920B9103596010BDC0462F
:102B2000F4090020FFFFFF8F00510041F40A00204C
:102B3000FF3F00F030B5214A137801210B43137099
:102B40001E4B9B78DB07FBD51C4B9B78DB07FBD42C
:102B50001B4B1968880C1F221040184B1C8D1F2519
:102B6000AC43204318854C0B188D22409201154C24
:102B7000204002431A85C80D1A8D07210140090320
:102B8000114802400A431A85DA7803210A43DA70B1
:102B9000DA780C210A43DA700C4A5A6200221A8150
:102BA00006321A70054B9B789B07FBD4034B998B1D
:102BB0009A8B0A439A8308221A8330BD0050004141
:102BC000246080003FF8FFFFFF8FFFFFF409002023
:102BD0008022014B1A60704700E100E08023034A25
:102BE000D350BFF34F8FBFF36F8F704700E100E00A
:102BF000034A138901210B439BB213817047C046DE
:102C000000500041024A138901218B431381704710
:102C1000005000410B785B0602D14B78052B0ED09B
:102C20000A4B0B4A1A6059680A4A114080229202E4
:102C30000A435A605A68920B9103596070478A7828
:102C4000853B1343DBB2044A9372E9E7F4090020A1
:102C5000F40A0020FF3F00F000500041F0B58E78EC
:102C60007F24344076B2F70F0022062A0CD8D31CFA
:102C7000012098400D794B791B022B435B055B0DBE
:102C8000984201D00132F0E7072A26D06300DF190D
:102C90003F01224BDF19786807231A401207204BA7
:102CA000184002437A6064011E4B9C466444002E27
:102CB0001EDBCB789B079B0F01332278072119403D
:102CC00007239A4313000B43237011232371637A64
:102CD0000122134363720120F0BD08794B791B0276
:102CE00003435B055B0D10488342CFD00020F3E720
:102CF000CB789B079B0F01332278072119400901EC
:102D000070239A4313000B43237022232371637AA9
:102D10000222134363720120DEE7C046F40900205B
:102D2000FFFFFF8F00510041FF03000070470000CC
:102D3000F0B57F20084049B2CF0F4501274CA4468B
:102D400065444400E4192401254EA251002801D114
:102D5000002A17D000292BDB4000C01902012048AF
:102D6000801842689B041B091E490A4013434360B4
:102D700043689B0B9A03426040232B713C3BEB71F1
:102D80000120F0BD002BE5D1174A1278D2099742F5
:102D9000E0D03200144C34607668124C2640802417
:102DA000A402344354605468A40BA6035660D1E7D0
:102DB0004000C01900010A4A10184168094A0A4037
:102DC000426042689B049B0C920B92031343436046
:102DD00080236B71783BEB71D2E7C0460051004114
:102DE000F4090020FF3F00F0F40A002010B5002392
:102DF00000228021034CA047034B01229A831A83AF
:102E000010BDC046312D0000005000417F230B4013
:102E10005B01064A9446634449B2002902DB102252
:102E20005A71704720225A71FBE7C0460051004199
:102E30007F230B405B01064A9446634449B2002954
:102E400002DB11221A71704722221A71FBE7C04679
:102E500000510041F0B5DE4657464E464546E0B5C6
:102E600085B02D4B1B8C9BB29846002422E062015A
:102E70002A4B9B1810335B689B049B0C9A4680235B
:102E80005B422343DBB29B4601AF0C22002138009A
:102E9000234B984707237B705B463B715346BB60CF
:102EA000012138001F4B984702234A46D37112E094
:102EB0000134E4B2072C28D825000123A340424660
:102EC0001342F5D06301184A914699444B46DE7986
:102ED000F6B2B307CBD4F307EAD56D010F4B5D19FA
:102EE0006E68B604B60C01AD0C22002128000C4B14
:102EF000984707236B702C71AE6001212800094BA5
:102F0000984701234A46D371D2E705B03CBC9046AE
:102F10009946A246AB46F0BD00500041F40900209E
:102F2000E5490000511F00000051004130B585B057
:102F3000394B9A8B1C8B144063070FD4E3071DD4C5
:102F4000E3062ED423073DD40823FF33324AD35C53
:102F5000DB064BD4314B984705B030BD04222E4BD5
:102F60009A8301AD0832002128002D4B9847032396
:102F70006B70012128002B4B9847DFE7264B01227D
:102F80009A830F329A831A8301AD043A00212800F4
:102F9000234B984704236B7001212800214B98474D
:102FA000CEE71D4B10229A839A8201AD043A00218C
:102FB00028001B4B984705236B7001212800194BF3
:102FC0009847BFE7144B08229A8309329A82164B1E
:102FD000984701AC0C2200212000114B9847012397
:102FE0006370012120000F4B9847ADE701AC0C2224
:102FF000002120000A4B9847062363700B4A02AB5E
:1030000003CA03C301212000064B9847112108235E
:10301000FF33014AD1549DE700500041552E000076
:10302000E5490000511F0000DD2A0000F40A0020DD
:1030300070470000F0B5C64600B582B088460190E2
:103040000126012401982100124B9847092806D92E
:10305000A3001C1963001C000136F6B2F2E700253C
:10306000B54212DA01980B4F2100B8473030434681
:10307000585501982100084B984701910A212000DA
:10308000B84704000135EDB2EAE7300002B004BCF5
:103090009046F0BDDD450000E946000041608260D9
:1030A0000023C36003614361013383617047000003
:1030B00070B50400150000206060A060E060206131
:1030C000606121701A0029002000024B98472000FF
:1030D00070BDC0469D3000000023C36003614361A2
:1030E0007047000010B50400014B9847200010BD48
:1030F000D930000070B504000E00150000780021E2
:103100009047E368A268934211D2636862699E5453
:10311000E3680133E3606369581CA168054B984775
:103120006161012620780121A847300070BD00268A
:10313000F8E7C046E946000070B504000E0015002F
:1031400000780021B047E368002B19D0002D03D090
:10315000636822699B5C2B702369581CA168094B2A
:1031600098472161E368013BE3600125A369002BD7
:1031700001D0013BA36120780121B047280070BD38
:103180000025F3E7E9460000F0B5CE46474680B596
:1031900085B006000F009046019300220C99300084
:1031A0002E4B9847041EF8D1B369002B2FD1FA5C3F
:1031B000002A01D00133FAE7B26894463269706898
:1031C0004245894149426446614351184246891A41
:1031D0000022012408E0013901329C1A3C5D455C63
:1031E000641B65426541ECB2002C06D0934204D9C1
:1031F0000029F0D161460139EEE7002C07D0012308
:10320000B361019B002B02D04346002B05D1200067
:1032100005B00CBC90469946F0BD307800210C9B5F
:10322000984743460393B068804500D903903169BD
:10323000039A9142924153424343CB1803995B1A3C
:103240003361039BF26894466344F360B36943447B
:10325000B361307801210C9B9847D8E739310000E1
:10326000F0B583B006000F00140000230B606A461F
:103270009371C368002B04D0436802699A5C6B4663
:103280009A716B469D79EDB2002002E06B46DD79C4
:1032900001202B00303BDBB2092B17D80022210084
:1032A00030000B4B98473B689A00D2185300EB183C
:1032B000303B3B6000226B46DA71F368002BE5D0AF
:1032C000736832699A5C6B46DA71DFE703B0F0BD70
:1032D00039310000F0B5DE4600B588B002900491A7
:1032E000039205930EAB1B789B460F9E012504E0CD
:1032F0000027002F13D00135EDB22C0000960123DA
:103300002A0003990298264FB8470028F0D15B465F
:1033100001339D4201D30027EBE70127E9E75B4634
:1033200001339C4236D202998A680B694C68002BA3
:1033300013D1013A0792320004990298194B984729
:10334000031E26D0059A002A0AD1002B1CD0079A0A
:10335000A418002222701F001CE0013B0793EAE73B
:103360000B2204AB9C466244310002980E4B9847F6
:10337000031EEAD00B2204A98C46624412780599F8
:103380009142E2D03B00E0E7002204990A601F006E
:1033900000E00700380008B004BC9346F0BDC0460A
:1033A0008931000061320000393100008368C06853
:1033B000181A7047C368002B06D08268934201D068
:1033C000022070470120FCE70020FAE705280DD80D
:1033D0008000084B1B589F4607480AE0074808E052
:1033E000074806E0074804E0074802E0002000E044
:1033F00006487047F44E00000008004200100042EA
:103400000014004200180042001C0042000C004260
:10341000F0B51F000F250D40464E2E43464C66600A
:10342000666801233B405B05444F3E403343636085
:10343000666880235B023343636012021543A56014
:103440003D4B5B78DB09FBD1052814D880003C4B51
:103450001B589F463B4A106A042303431362090228
:10346000F0231B010B4038491943334B598080220C
:103470009200364B1A60304B5B78DB09FBD1F0BD14
:10348000304A106A0823034313620902F0231B0128
:103490000B402F491943284B59808022D2002B4BD7
:1034A0001A60E8E7274A106A1023034313620902EF
:1034B000F0231B010B40274919431F4B59808022E1
:1034C0001201224B1A60D6E71E4A106A20230343DA
:1034D00013620902F0231B010B401F491943164BCD
:1034E000598080225201194B1A60C4E7154A106AAC
:1034F0004023034313620902F0231B010B401749C9
:1035000019430D4B598080229201104B1A60B2E78B
:103510000C4A106A8023034313620902F0231B0143
:1035200019400F4B1943044B59808022D201074B9D
:103530001A60A0E700060200000C0040FFFFDFFF5A
:103540000C4F0000000400401440000000E100E0C7
:103550001540000016400000174000001840000011
:1035600019400000F0B583B0040A050C0190E4B2E4
:10357000E8B2E501294EB44665442D18403542268F
:103580002E70002924D001218140E3016344996019
:10359000002A1BD0E301214A944663441B184033A0
:1035A0001A7801210A431A70C30728D5430801AAD3
:1035B00011780F221140E001184CA4466044C01855
:1035C00030300478090122400A43027003B0F0BD94
:1035D00001258540E101114EB44661444D60002B48
:1035E000D6D0E1016144091840310E7804273E43EA
:1035F0000E70012BCCD1E30163449D61C8E7430801
:1036000001AA1178E0016044C018303003780F221D
:103610000A400F218B4313430370D7E70044004156
:1036200082B0030A0190DBB2DB01064A9446634490
:10363000186A01AB9B78D84003000120184002B003
:103640007047C0460044004182B0030A000CDBB260
:10365000C0B201228240DB0102498C4663449A6178
:1036600002B070470044004182B0030A000CDBB294
:10367000C0B201228240DB0102498C4663445A6198
:1036800002B070470044004170B504000423437049
:103690004D4B03610023436183610170052917D8F5
:1036A00089004A4B5B589F46494D0230032229004E
:1036B000484EB047601D291D0322B0472B89238146
:1036C000AB7AA37220000B3029000C310322B047E3
:1036D00070BD3F4D02302900103103223D4EB047EE
:1036E000601D290014310322B0472B8B2381AB7E50
:1036F000A37220000B3029001C310322B047E7E7FA
:10370000334D0230290020310322324EB047601D74
:10371000290024310322B0472B0028332A8D22812F
:103720009B78A37220000B3029002C310322B04774
:10373000CEE7274D0230290030310322254EB04715
:10374000601D290034310322B0472B0038332A8F03
:1037500022819B78A37220000B3029003C31032288
:10376000B047B5E71A4D0230290040310322194E07
:10377000B047601D290044310322B0472B00483375
:103780001A8822819B78A37220000B3029004C31CB
:103790000322B0479CE70E4D02302900503103222E
:1037A0000C4EB047601D290054310322B0472B0056
:1037B00058331A8822819B78A37220000B3029008D
:1037C0005C310322B04783E750C30000244F000060
:1037D000744F000061490000024B1870024B1980C1
:1037E0009A7070472C000020FE0A002010B50421BA
:1037F000014B984710BDC04689360000F8B5CE464B
:10380000474680B505000E1E3CD103239946023B76
:103810001F006B79A87900020343E879000418437C
:1038200000230122664CA0476B88287900041843C6
:10383000002301223900A047002301223900A86893
:10384000A047002E23D0EB7A287B00020343687B3D
:1038500000041843002301220021594CA047287876
:10386000584B984704002878574A9378128857494C
:103870000978574FB8476B78072B1ED89B00554ADD
:10388000D3589F460223994600231F00C1E7EB7AD5
:10389000287B00020343687B0004184300230022B6
:1038A0000121474FB847EB7A287B00020343687B2E
:1038B00000041843484B9847D1E70023002216E044
:1038C0000323002213E00123032210E0022303223A
:1038D0000DE0002301220AE00123012207E000237A
:1038E000022204E00223022201E0022300221B053F
:1038F000120413434A4697003B438022520013436D
:1039000023606B69012B3ED00EDD022B45D0032BCB
:1039100014D1226880239B051343236022688023EF
:103920005B051343236009E0002B07D122682B4B72
:103930001340236022682A4B13402360AB69013B8C
:103940005942594122688B0726490A401343236094
:10395000002E2CD06268402313436360626880238A
:103960009B0013436360626880239B021343636080
:103970002268022313432360E3699B07FCD40CBC39
:1039800090469946F8BD2268144B13402360226884
:1039900080235B0513432360D0E7226880239B05C7
:1039A0001343236022680E4B13402360C6E7296946
:1039B00049000D480D4B98470138C0B22073D2E73B
:1039C00065350000CD330000FE0A00202C000020E9
:1039D000113400003C4F000049360000FFFFFFDFBC
:1039E000FFFFFFEFFFFFFFBF00127A00DD45000081
:1039F00010B50400284B9847002343834360C369F4
:103A00005B07FCD4026802239A430260C3699B07E8
:103A1000FCD4052C0CD8A400204B1B599F468021B8
:103A2000890080231E4AD150BFF34F8FBFF36F8FA1
:103A300010BD8021C9008023194AD150BFF34F8F98
:103A4000BFF36F8FF4E7802109018023144AD1501E
:103A5000BFF34F8FBFF36F8FEAE7802149018023C7
:103A60000F4AD150BFF34F8FBFF36F8FE0E7802134
:103A7000890180230A4AD150BFF34F8FBFF36F8F64
:103A8000D6E78021C9018023054AD150BFF34F8F6B
:103A9000BFF36F8FCCE7C046CD3300005C4F000012
:103AA00000E100E010B5054B9847037EDB07DB0F14
:103AB000807DC007C00F184010BDC046CD33000048
:103AC00010B5054B9847037E5B07DB0F807D4007F1
:103AD000C00F184010BDC046CD33000010B5024BDA
:103AE0009847806AC0B210BDCD33000010B5040005
:103AF0000800024B9847846210BDC046CD330000D9
:103B000010B50C00084B9847002C07D1037DDB074C
:103B100008D5037D01221340037503E0837D012254
:103B20001343837510BDC046CD33000010B50C00A3
:103B3000084B9847002C07D1037D5B0708D5037D10
:103B400004221340037503E0837D0422134383752D
:103B500010BDC046CD33000010B50C00084B98478F
:103B6000002C07D1037DDB0909D0037D7F2293431D
:103B7000037504E0827D80235B421343837510BD8F
:103B8000CD33000010B5074B9847027ED209837DE4
:103B9000DB09134004D0017E802252420A430276A0
:103BA000180010BDCD33000000B583B00A4B984714
:103BB000438B5B07DB0F6A46D371D379002B03D0AD
:103BC000438B0422134343836B46D879431E9841A9
:103BD000C0B203B000BDC046CD3300000023036077
:103BE00043608360C360036143618361C3610362B7
:103BF00043623F228354073A8354704770B50400F0
:103C00000160426000258560C56005612823C05CB5
:103C10000021024B9847E56270BDC046013B0000A1
:103C200070B50400416182610025C561056245628D
:103C30002823C05C0121024B98472563656370BD52
:103C40002D3B000070B504001500002902D1002DA5
:103C50000BD170BD00268660C66006612823C05C5B
:103C60000021084B9847E662F1E70025E5612562EF
:103C700065622823E05C0121034B98472563656357
:103C8000E7E7C046013B00002D3B000070B5040093
:103C90003823C35C002B00D170BD01220121094BE8
:103CA00098472825605D084B9847605D0021074BC9
:103CB0009847605D0021064B984700223823E25464
:103CC000EAE7C046453C0000F13900002D3B00000A
:103CD000013B000010B50400014B9847200010BDC7
:103CE0008D3C000070B504000E003823C55C002D2B
:103CF00001D1280070BD103BC05C00210C4B9847DF
:103D0000A3686268934211D2236822699E54A36813
:103D10000133A3602369581C6168064B98472161F1
:103D20002823E05C0121024B9847E2E70025F7E7F2
:103D3000013B0000E946000070B504000D00282397
:103D4000C05C00210E4B9847E369002B16D0002D74
:103D500003D06369226A9B5C2B70236A581CA1699B
:103D6000084B98472162E369013BE3610125282361
:103D7000E05C0121024B9847280070BD0025F6E762
:103D80002D3B0000E946000010B50400C3698269BC
:103D900093420BD24369426A9954C3690133C361A8
:103DA000436A581CA169024B9847616210BDC04626
:103DB000E946000070B504008568002D0BD0C0688E
:103DC00023681E5C01306168044B9847E160013D47
:103DD000A560300070BD0026FBE7C046E946000044
:103DE00010B504002823C05C034B9847002801D07D
:103DF0000123636310BDC046A93B000010B5040059
:103E00002823C05C2C4B9847002813D0A368002BB4
:103E100006D062689A4201D0022302E0012300E04A
:103E20000023002B1AD10133E3622733E05C002129
:103E3000224B98473F23E05C002819D100281CD171
:103E40002823E05C1E4B984700281BD0E369002B19
:103E50001BD0A269934216D0022317E02000194B11
:103E600098472823E15C184B98470223E362E1E777
:103E7000173BE05C154B9847E0E7012323632000E4
:103E8000134B984710BD012300E00023012B0AD0FB
:103E90002823E05C0F4B9847010020000E4B984709
:103EA00003232363EEE72733E05C00210B4B9847A5
:103EB00002232363E6E7C046A53A0000013B000069
:103EC000C13A0000B53D0000ED3A0000853B00001E
:103ED000E13D0000DD3A0000893D00002D3B00007F
:103EE0000023C362704700230363704710B53F236C
:103EF000C154173BC05C014B984710BD593B0000B3
:103F0000F8B504000D0016001F003823C35C002B19
:103F100000D0F8BD3C300B310322104B98470021F4
:103F200028000F4B98472A782823E2543A003100A2
:103F300020000C4B9847079A069920000A4B984797
:103F40003F23E15C2000094B98470023E362236391
:103F5000636301223833E254DBE7C0466149000065
:103F6000FD370000FD3B0000213C0000ED3E00005D
:103F700010B5C06B014B984710BDC04649360000D4
:103F800010B5C06B014B984710BDC04669360000A4
:103F9000F0B5C64600B582B00400884617001D0083
:103FA0001D4B984700226B46DA71002646450ED21B
:103FB000B95D2000194B98470028F9D06B46D91DF0
:103FC0002000174B98470028F8D00136EEE700266E
:103FD00000E00136AE420FD22000124B984700217C
:103FE00020000E4B98470028F9D0236B002BFCD003
:103FF000022BEED12E00ECE720000B4B984720005F
:104000000A4B98472000074B98476B46D87902B077
:1040100004BC9046F0BDC046813F0000E53C000076
:10402000393D0000E73E0000713F0000E13E000026
:1040300031494A681E239A431C3B13434B602F4B64
:10404000DB68DB06FBD502222C4B9A842B4BDB680A
:10405000DB06FBD52A4B1A68920E2A4B1B689B0580
:104060009B0D92021343254A9362244BDB68DB06C7
:10407000FBD5224B9A8C902149000A439A84224A0C
:10408000DA629A8C04210A439A849A8C02210A43A8
:104090009A841A4BDB68DB06FBD51C4A1C4B5A6022
:1040A0001B4B5B78DB09FBD11A4BD96920220A43F1
:1040B000DA61596940220A435A61174A144B5A80FF
:1040C000134B5B78DB09FBD1144B802212049A60FE
:1040D000802252049A60802292049A6060213B22DE
:1040E00099543A3A09395A5466201B3958541C31AC
:1040F0005A5401315A5470470040004100080040B2
:10410000246080002860800080BB01040007030059
:10411000000C004000040040064000000044004144
:1041200070B50400002300220021044DA84700239D
:10413000237701336377200070BDC046B1300000A3
:1041400010B5014B984710BD9D30000070B50500BB
:104150001400002902D1002C04D170BD0020034BB3
:104160009847F8E72800024B9847F6E7D910000077
:10417000D930000010B50020014B984710BDC04653
:104180002D2F000070B51400007F002800D170BDF5
:104190000020054B984705000020044B9847641BFE
:1041A00060426041C0B2F2E795100000C50F000008
:1041B00010B50C00037F002B02D10024200010BD9D
:1041C0000800064B9847020021000020044B984746
:1041D00004000020034B9847F0E7C046794A0000EE
:1041E00095100000C50F000010B582B0024C00947D
:1041F000024CA04702B010BD3130000089310000F0
:1042000010B584B00400080001A9044B98470200CF
:1042100001A92000024B984704B010BD35300000C2
:104220008541000030B583B006AC2478034D01957C
:104230000094034CA04703B030BDC04631300000AD
:10424000D532000010B5024A024B984710BDC04657
:1042500031300000F5300000F0B5D646474680B555
:1042600083B000AF05007960047F002C05D1BD4606
:1042700003B00CBC90469A46F0BD00201E4B9847F8
:10428000002808D10024002C0CD10021012040423C
:104290001A4B9847EBE72800194B98470128F2D1B1
:1042A0000024F0E7EA462800164CA0470730C00873
:1042B000C0006B461B1A9D466E462800A0470200B0
:1042C00069460020104B984780467B68002B08D138
:1042D000002444450DD2315D28000C4B9847013431
:1042E000F7E7020069460020094B98470020094B78
:1042F0009847D546C9E7C046750F0000E126000083
:10430000B5330000AD330000950F000045420000BA
:1043100095100000C50F000010B5007F002800D1E7
:1043200010BD014B9847FBE7211E000010B50400AB
:10433000037F002B02D0437F002B00D010BD024B27
:10434000984701236377F9E7411E000010B5040088
:10435000037F002B00D110BD01220121034B9847A0
:104360002000034B984700232377F4E74D410000DA
:104370002D43000010B50400034B98472000034B69
:104380009847200010BDC0464D430000E5300000B6
:1043900010B50400037F002B02D0437F002B00D117
:1043A00010BD024B984700236377F9E7611E0000B8
:1043B00010B50400037F002B00D010BD084B9847B8
:1043C000084B984701232377074B9847002802D1D1
:1043D000064B9847F1E72000054B9847EDE7C046AC
:1043E0004141000031400000811E0000F543000003
:1043F0009143000010B50020014B984710BDC04606
:10440000951E000010B5034B9847002800D00120EE
:1044100010BDC046811E00000378DB0704D403787A
:104420005B070AD5002300E00023002B03D00278AD
:1044300004210A430270180070470123F5E703784E
:104440005B0708D40023002B03D0027804218A43A1
:104450000270180070470378DB0701D50023F2E7EC
:104460000123F0E7027943791B0213435B055B0DDF
:10447000C2789207920F022A0CD019D8012A21D1B2
:10448000022904D0134A9A421ED301201BE0802245
:10449000D200F8E7022903D0402B17D8012012E000
:1044A00080229200934201D000200CE001200AE01B
:1044B000022904D040229A420AD3012003E080223C
:1044C000D200F8E7002070470020FCE70020FAE760
:1044D0000020F8E7FF03000030B58A1801E00C78EF
:1044E000091991420AD24C78052CF8D18D787A348A
:1044F0002C4064000419ED096355F0E730BD00005D
:1045000000487047D44F0000014814307047C0463F
:10451000D44F000070B500280DD0042824D88000A6
:10452000124BC5582800124B9847C0B21F2800D91B
:104530001F2000230EE00D4B196802220D480230A7
:104540000D4B9847012007E05A1CEC5C5100094BC9
:10455000CC52D3B29842F7D801304000C0239B0020
:1045600003430448038070BD0020FCE730000020B6
:10457000794A0000040B00206149000010B50400D6
:1045800003789B00C3185B689847207010BD70B516
:1045900005000C009047A04200D0287070BD0000BC
:1045A000044B1B68002B00D172B6024A136801331A
:1045B00013607047440B0020034A1368013B1360EB
:1045C000002B00D162B67047440B00200B0010B5E1
:1045D0000100180000F098F910BDC0460022430801
:1045E0008B4274D303098B425FD3030A8B4244D3BB
:1045F000030B8B4228D3030C8B420DD3FF220902FD
:1046000012BA030C8B4202D31212090265D0030BBB
:104610008B4219D300E0090AC30B8B4201D3CB03B1
:10462000C01A5241830B8B4201D38B03C01A5241F3
:10463000430B8B4201D34B03C01A5241030B8B42F5
:1046400001D30B03C01A5241C30A8B4201D3CB02E0
:10465000C01A5241830A8B4201D38B02C01A5241C5
:10466000430A8B4201D34B02C01A5241030A8B42C8
:1046700001D30B02C01A5241CDD2C3098B4201D3E0
:10468000CB01C01A524183098B4201D38B01C01A5E
:10469000524143098B4201D34B01C01A52410309D5
:1046A0008B4201D30B01C01A5241C3088B4201D384
:1046B000CB00C01A524183088B4201D38B00C01A31
:1046C000524143088B4201D34B00C01A5241411A58
:1046D00000D20146524110467047FFE701B5002065
:1046E00000F006F802BDC0460029F7D076E7704713
:1046F0007047C046002B11D1002A0FD1002900D1EC
:10470000002802D00021C943081C07B4024802A1B6
:104710004018029003BDC046D9FFFFFF03B46846AE
:1047200001B5029800F006F8019B9E4602B00CBC51
:104730007047C046F0B557464E464546DE46E0B5A2
:10474000040083B00D00924699468B422FD82CD09E
:104750004946504600F0CCF829000600200000F041
:10476000C7F8331A9846203B9B4600D574E0534661
:104770005A4693401F005346424693401E00AF42A4
:1047800029D826D05B46A41BBD41002B00DA79E076
:10479000002200230092019301235A469340019383
:1047A000012342469340009319E08242D0D900226F
:1047B0000023009201930C9B002B01D01C605D60D4
:1047C0000098019903B03CBC90469946A246AB467E
:1047D000F0BDA342D6D900220023009201934346A4
:1047E000002BE8D0FB0772081A4346467B080EE010
:1047F000AB4201D1A2420CD8A41A9D410120241938
:104800006D410021013E24184D41002E06D0AB42DF
:10481000EED9013E24196D41002EF8D15B46009877
:10482000019900196941002B22DB2B005A46D34025
:104830002A004446E2401C005B461500002B2CDB9E
:1048400026009E40330026004746BE403200801AB4
:10485000994100900191AEE7424620239B1A5246AF
:10486000DA40414613004A468A4017001F4382E758
:10487000424620239B1A2A0046469A402300F340D2
:104880001343D5E74246202300219B1A00220091C2
:1048900001920122DA40019282E74246202326005B
:1048A0009B1ADE402F00B446974066463B003343D8
:1048B000C9E7C0461C2101231B04984201D3000C08
:1048C00010391B0A984201D3000A08391B09984283
:1048D00001D30009043902A2105C40187047C04699
:1048E00004030202010101010000000000000000B9
:1048F00010B5002903D1FFF7DDFF203002E0081CCE
:10490000FFF7D8FF10BDC04610B513000A00010024
:10491000022000F0E3F810BD70B50D4E0D4D0024DF
:10492000AD1BAD1005D0A300F35801349847A54244
:10493000F9D100F099FB084E084D0024AD1BAD10D5
:1049400005D0A300F35801349847A542F9D170BDB2
:10495000745000007450000074500000805000003B
:10496000F0B505000F2A2FD90B0003439B0734D164
:1049700016000C000300103E350901352D014519C4
:1049800027681F6067685F60A7689F60E7681034EA
:10499000DF6010339D42F3D10F239E4310368519FB
:1049A00089191340032B1AD91E1F0023B4080134A0
:1049B000A400CF58EF500433A342FAD10324A643F6
:1049C000331D2240C918ED18002A05D00023CC5C05
:1049D000EC5401339342FAD1F0BD0500F6E71A001A
:1049E000F2E7C046F0B5830743D0541E002A3FD0FB
:1049F000CEB20200032502E01A00013C38D3531C5A
:104A000016702B42F8D1032C2AD9FF220A40150236
:104A100015432A0415430F2C14D927001A00103F00
:104A20003E09013636019E19156055609560D560C6
:104A300010329642F8D10F2297431037DB191440F9
:104A4000032C0DD91A00271FBE080136B6009E1987
:104A500020C2B242FCD1032297430437DB19144031
:104A6000002C05D0C9B21C19197001339C42FBD12E
:104A7000F0BD14000300C6E710B5830725D0037806
:104A8000002B24D00300032102E01A78002A1AD058
:104A900001330B42F9D119680E4A0F4C8A188A4328
:104AA000224206D1043319680A4A8A188A432242EC
:104AB000F8D01A001B78002B03D00132117800299E
:104AC000FBD1101A10BD181AFCE70300E3E7002021
:104AD000F8E7C046FFFEFEFE80808080F0B54E46BF
:104AE0004546DE465746E0B5364D83B00600286899
:104AF00098460F00914600F099F8334B1C68A423A8
:104B00005B00E058002852D043681F2B13DC5A1C6E
:104B10000192002E28D1019A02339B0042601F505F
:104B2000286800F085F8002003B03CBC9046994608
:104B3000A246AB46F0BD254B002B3DD0C82040001F
:104B400000E000BF002837D0A42200235200A15863
:104B500043600160A05040328350043283500133DF
:104B600001930023002ED6D09A00924682444A46F2
:104B7000882154466250C4225200914681444A46DC
:104B80008739994012688B460A4394464A466146E3
:104B90001160842241465200A150022EBBD1020076
:104BA0005C468D32FF3211680C431460B3E720007D
:104BB0004D30FF30E050A7E7286800F039F80120B9
:104BC0004042B1E770040020645000000000000083
:104BD000034B10B5002B02D0024800F005F810BDC1
:104BE00000000000F94B000010B501000023002276
:104BF0000020FFF773FF10BD70B5094B094CE41A94
:104C0000A41009D0084AA518AD00ED182B68013C86
:104C10009847043D002CF9D100F032FA70BDC0462F
:104C20008C50000090500000FFFFFF3F7047C046CF
:104C30007047C0460001020053656E642061206326
:104C40006F6D6D616E6420746F207465737420697C
:104C500074206F7574210A0A00000000436F6D6DA7
:104C6000616E64206C6973743A0A0000226C6F7282
:104C7000615F68656C6C6F5F776F726C6422202D6A
:104C80003E2073656E64732068656C6C6F20776F6F
:104C9000726C64207468726F756768204C6F526123
:104CA00020726164696F2E0A00000000226C6F722E
:104CB000615F696E74656765725F2322202D3E20F7
:104CC00073656E647320616E2041534349492069C6
:104CD0006E7465676572207468726F756768204CC2
:104CE0006F526120726164696F20287265706C6117
:104CF00063652023207769746820612076616C6980
:104D00006420696E74656765722E0A00226F66669C
:104D100022202D3E207475726E206F66662E0A006A
:104D200068656C6C6F20776F726C64005472616E92
:104D3000736D69747465642068656C6C6F20776F3F
:104D4000726C64207468726F756768204C6F526172
:104D5000210A00004C6F52612074696D6564206FF8
:104D60007574210A000000005472616E736D6974DD
:104D700074656420000000006F6E0000526563657A
:104D800069766564206F6E20636F6D6D616E64215E
:104D9000205475726E696E67206F6E2E2E2E0A0A71
:104DA000000000006C6F72615F68656C6C6F5F770C
:104DB0006F726C64000000006F6666005265636588
:104DC00069766564206F666620636F6D6D616E64E1
:104DD00021205475726E696E67206F66662E2E2EC6
:104DE0000A00000055534220506C756767656420C7
:104DF000696E210A000000006C6F72615F696E7459
:104E0000656765725F000000200C00007E0C0000EA
:104E1000860C00008E0C0000960C00009E0C00001A
:104E2000A60C0000AE0C0000B60C0000E60C000062
:104E3000EE0C0000F60C0000FE0C0000060D000059
:104E40000E0D0000FFFF00000243024300000000BF
:104E5000BE1D0000221D0000581D0000861D000020
:104E6000BE1D0000BE1D0000A41D0000581D000056
:104E7000BE1D0000BE1D0000BE1D0000BE1D0000C6
:104E8000BE1D0000BE1D0000BE1D0000341D000040
:104E9000C02400009A240000C226000074240000F0
:104EA000C2260000E62300006A240000C22600009B
:104EB000022400001A240000FE260000F026000054
:104EC0002E270000FE2600001028000030280000D9
:104ED000402700008A27000046280000F910000043
:104EE00079110000C9110000A9120000D9130000B7
:104EF00000000000D8330000F0330000DC33000075
:104F0000E0330000E4330000E833000054340000D4
:104F100080340000A4340000C8340000EC340000E9
:104F200010350000A8360000D2360000003700001F
:104F3000323700006437000096370000EA3800007E
:104F4000C0380000C6380000CC380000D23800005D
:104F5000D8380000DE380000E43800001E3A0000B7
:104F6000323A0000463A00005A3A00006E3A000019
:104F7000823A00000300060003000400030007005B
:104F800003000500020012000200100002001300DE
:104F90000200110003000A000300080003000B00D8
:104FA00003000900030012000300100003001300B7
:104FB0000300110003010A0003000C0003010B00B1
:104FC0000301090003011600030016000301170086
:104FD0000300170012010002EF020140FECA014067
:104FE000000101020301000009024B0002010080E0
:104FF00032080B0002020200000904000001020254
:1050000000040524002001052401000104240202FB
:1050100005240600010705810308001009040100AA
:10502000020A000000070502024000000705820294
:10503000400000000904000054696E795553420095
:1050400054696E7955534220446576696365000062
:10505000313233343536000054696E79555342206D
:105060004344430048000020F8B5C046F8BC08BCE3
:105070009E467047D14B0000DD0000001107000084
:10508000F8B5C046F8BC08BC9E467047B5000000A5
:085090003CF5FF7F0100000068
:1050980000000000000013000000120000001100D2
:1050A800FF000000F91D0000480B002010000C0054
:1050B8000000E0FF1F0000000000000002000000E8
:1050C800345000003850000040500000505000009C
:1050D80058500000000000000000000034030020C9
:1050E8009C030020040400200000000000000000D1
:1050F80000000000000000000000000000000000A8
:105108000000000000000000000000000000000097
:105118000000000000000000000000000000000087
:105128000000000000000000000000000000000077
:105138000000000000000000000000000000000067
:105148000000000000000000000000000000000057
:105158000000000000000000000000000000000047
:105168000000000000000000000000000000000037
:105178000000000000000000000000000000000027
:1051880001000000000000000E33CDAB34126DE6C4
:10519800ECDE05000B00000000000000000000002D
:1051A80000000000000000000000000000000000F7
:1051B80000000000000000000000000000000000E7
:1051C80000000000000000000000000000000000D7
:1051D80000000000000000000000000000000000C7
:04550800080C00206B
:00000001FF
